{
  "contractName": "Ownable",
  "abi": [
    {
      "constant": false,
      "inputs": [
        {
          "name": "_upc",
          "type": "uint256"
        },
        {
          "name": "price",
          "type": "uint256"
        }
      ],
      "name": "putForSaleItem",
      "outputs": [],
      "payable": false,
      "stateMutability": "nonpayable",
      "type": "function",
      "signature": "0x11120f65"
    },
    {
      "constant": false,
      "inputs": [
        {
          "name": "account",
          "type": "address"
        }
      ],
      "name": "addConsumer",
      "outputs": [],
      "payable": false,
      "stateMutability": "nonpayable",
      "type": "function",
      "signature": "0x112940f9"
    },
    {
      "constant": false,
      "inputs": [
        {
          "name": "_upc",
          "type": "uint256"
        }
      ],
      "name": "boxItem",
      "outputs": [],
      "payable": false,
      "stateMutability": "nonpayable",
      "type": "function",
      "signature": "0x1c7842aa"
    },
    {
      "constant": false,
      "inputs": [
        {
          "name": "_upc",
          "type": "uint256"
        },
        {
          "name": "cooperative",
          "type": "address"
        }
      ],
      "name": "shipGrappesItem",
      "outputs": [],
      "payable": false,
      "stateMutability": "nonpayable",
      "type": "function",
      "signature": "0x24c966aa"
    },
    {
      "constant": false,
      "inputs": [
        {
          "name": "_upc",
          "type": "uint256"
        }
      ],
      "name": "ageItem",
      "outputs": [],
      "payable": false,
      "stateMutability": "nonpayable",
      "type": "function",
      "signature": "0x3c59ed15"
    },
    {
      "constant": false,
      "inputs": [],
      "name": "kill",
      "outputs": [],
      "payable": false,
      "stateMutability": "nonpayable",
      "type": "function",
      "signature": "0x41c0e1b5"
    },
    {
      "constant": false,
      "inputs": [
        {
          "name": "_upc",
          "type": "uint256"
        }
      ],
      "name": "processItem",
      "outputs": [],
      "payable": false,
      "stateMutability": "nonpayable",
      "type": "function",
      "signature": "0x49dae766"
    },
    {
      "constant": true,
      "inputs": [
        {
          "name": "account",
          "type": "address"
        }
      ],
      "name": "isRetailer",
      "outputs": [
        {
          "name": "",
          "type": "bool"
        }
      ],
      "payable": false,
      "stateMutability": "view",
      "type": "function",
      "signature": "0x5da09b88"
    },
    {
      "constant": false,
      "inputs": [],
      "name": "renounceConsumer",
      "outputs": [],
      "payable": false,
      "stateMutability": "nonpayable",
      "type": "function",
      "signature": "0x61e6982d"
    },
    {
      "constant": false,
      "inputs": [],
      "name": "renounceDistributor",
      "outputs": [],
      "payable": false,
      "stateMutability": "nonpayable",
      "type": "function",
      "signature": "0x644241db"
    },
    {
      "constant": true,
      "inputs": [
        {
          "name": "_upc",
          "type": "uint256"
        }
      ],
      "name": "fetchItemBufferTwo",
      "outputs": [
        {
          "name": "itemSKU",
          "type": "uint256"
        },
        {
          "name": "itemUPC",
          "type": "uint256"
        },
        {
          "name": "productID",
          "type": "uint256"
        },
        {
          "name": "productNotes",
          "type": "string"
        },
        {
          "name": "productPrice",
          "type": "uint256"
        },
        {
          "name": "itemState",
          "type": "uint256"
        },
        {
          "name": "cooperativeID",
          "type": "address"
        },
        {
          "name": "distributorID",
          "type": "address"
        },
        {
          "name": "retailerID",
          "type": "address"
        },
        {
          "name": "consumerID",
          "type": "address"
        }
      ],
      "payable": false,
      "stateMutability": "view",
      "type": "function",
      "signature": "0x66225ff9"
    },
    {
      "constant": false,
      "inputs": [
        {
          "name": "account",
          "type": "address"
        }
      ],
      "name": "addDistributor",
      "outputs": [],
      "payable": false,
      "stateMutability": "nonpayable",
      "type": "function",
      "signature": "0x7250e224"
    },
    {
      "constant": true,
      "inputs": [
        {
          "name": "_upc",
          "type": "uint256"
        }
      ],
      "name": "fetchItemBufferOne",
      "outputs": [
        {
          "name": "itemSKU",
          "type": "uint256"
        },
        {
          "name": "itemUPC",
          "type": "uint256"
        },
        {
          "name": "ownerID",
          "type": "address"
        },
        {
          "name": "originFarmerID",
          "type": "address"
        },
        {
          "name": "originFarmName",
          "type": "string"
        },
        {
          "name": "originFarmInformation",
          "type": "string"
        },
        {
          "name": "originFarmLatitude",
          "type": "string"
        },
        {
          "name": "originFarmLongitude",
          "type": "string"
        }
      ],
      "payable": false,
      "stateMutability": "view",
      "type": "function",
      "signature": "0x77c45913"
    },
    {
      "constant": false,
      "inputs": [
        {
          "name": "account",
          "type": "address"
        }
      ],
      "name": "addFarmer",
      "outputs": [],
      "payable": false,
      "stateMutability": "nonpayable",
      "type": "function",
      "signature": "0x80c3f96d"
    },
    {
      "constant": false,
      "inputs": [],
      "name": "renounceFarmer",
      "outputs": [],
      "payable": false,
      "stateMutability": "nonpayable",
      "type": "function",
      "signature": "0x80fc0ce4"
    },
    {
      "constant": true,
      "inputs": [
        {
          "name": "account",
          "type": "address"
        }
      ],
      "name": "isConsumer",
      "outputs": [
        {
          "name": "",
          "type": "bool"
        }
      ],
      "payable": false,
      "stateMutability": "view",
      "type": "function",
      "signature": "0x834ff739"
    },
    {
      "constant": false,
      "inputs": [
        {
          "name": "account",
          "type": "address"
        }
      ],
      "name": "addRetailer",
      "outputs": [],
      "payable": false,
      "stateMutability": "nonpayable",
      "type": "function",
      "signature": "0x8ec4f505"
    },
    {
      "constant": true,
      "inputs": [
        {
          "name": "account",
          "type": "address"
        }
      ],
      "name": "isDistributor",
      "outputs": [
        {
          "name": "",
          "type": "bool"
        }
      ],
      "payable": false,
      "stateMutability": "view",
      "type": "function",
      "signature": "0x8f0c86fa"
    },
    {
      "constant": true,
      "inputs": [
        {
          "name": "account",
          "type": "address"
        }
      ],
      "name": "isCooperative",
      "outputs": [
        {
          "name": "",
          "type": "bool"
        }
      ],
      "payable": false,
      "stateMutability": "view",
      "type": "function",
      "signature": "0xa3fac137"
    },
    {
      "constant": false,
      "inputs": [
        {
          "name": "_upc",
          "type": "uint256"
        },
        {
          "name": "_price",
          "type": "uint256"
        }
      ],
      "name": "receiveItem",
      "outputs": [],
      "payable": false,
      "stateMutability": "nonpayable",
      "type": "function",
      "signature": "0xb50f60e7"
    },
    {
      "constant": false,
      "inputs": [
        {
          "name": "_upc",
          "type": "uint256"
        }
      ],
      "name": "bottleItem",
      "outputs": [],
      "payable": false,
      "stateMutability": "nonpayable",
      "type": "function",
      "signature": "0xb585a6b1"
    },
    {
      "constant": true,
      "inputs": [
        {
          "name": "account",
          "type": "address"
        }
      ],
      "name": "isFarmer",
      "outputs": [
        {
          "name": "",
          "type": "bool"
        }
      ],
      "payable": false,
      "stateMutability": "view",
      "type": "function",
      "signature": "0xb9429069"
    },
    {
      "constant": false,
      "inputs": [
        {
          "name": "_upc",
          "type": "uint256"
        },
        {
          "name": "retailer",
          "type": "address"
        }
      ],
      "name": "shipItem",
      "outputs": [],
      "payable": false,
      "stateMutability": "nonpayable",
      "type": "function",
      "signature": "0xbb4f288d"
    },
    {
      "constant": false,
      "inputs": [
        {
          "name": "_upc",
          "type": "uint256"
        },
        {
          "name": "_originFarmerID",
          "type": "address"
        },
        {
          "name": "_originFarmName",
          "type": "string"
        },
        {
          "name": "_originFarmInformation",
          "type": "string"
        },
        {
          "name": "_originFarmLatitude",
          "type": "string"
        },
        {
          "name": "_originFarmLongitude",
          "type": "string"
        },
        {
          "name": "_productNotes",
          "type": "string"
        }
      ],
      "name": "harvestItem",
      "outputs": [],
      "payable": false,
      "stateMutability": "nonpayable",
      "type": "function",
      "signature": "0xbdd8a6a8"
    },
    {
      "constant": false,
      "inputs": [
        {
          "name": "_upc",
          "type": "uint256"
        }
      ],
      "name": "purchaseItem",
      "outputs": [],
      "payable": true,
      "stateMutability": "payable",
      "type": "function",
      "signature": "0xd38ea5bf"
    },
    {
      "constant": false,
      "inputs": [],
      "name": "renounceRetailer",
      "outputs": [],
      "payable": false,
      "stateMutability": "nonpayable",
      "type": "function",
      "signature": "0xdb0e6a2f"
    },
    {
      "constant": false,
      "inputs": [
        {
          "name": "_upc",
          "type": "uint256"
        }
      ],
      "name": "buyItem",
      "outputs": [],
      "payable": true,
      "stateMutability": "payable",
      "type": "function",
      "signature": "0xe7fb74c7"
    },
    {
      "constant": false,
      "inputs": [],
      "name": "renounceCooperative",
      "outputs": [],
      "payable": false,
      "stateMutability": "nonpayable",
      "type": "function",
      "signature": "0xeb34ce8c"
    },
    {
      "constant": false,
      "inputs": [
        {
          "name": "account",
          "type": "address"
        }
      ],
      "name": "addCooperative",
      "outputs": [],
      "payable": false,
      "stateMutability": "nonpayable",
      "type": "function",
      "signature": "0xebeab3f9"
    },
    {
      "inputs": [],
      "payable": false,
      "stateMutability": "nonpayable",
      "type": "constructor",
      "signature": "constructor"
    },
    {
      "anonymous": false,
      "inputs": [
        {
          "indexed": true,
          "name": "oldOwner",
          "type": "address"
        },
        {
          "indexed": true,
          "name": "newOwner",
          "type": "address"
        }
      ],
      "name": "TransferOwnership",
      "type": "event",
      "signature": "0x5c486528ec3e3f0ea91181cff8116f02bfa350e03b8b6f12e00765adbb5af85c"
    },
    {
      "anonymous": false,
      "inputs": [
        {
          "indexed": false,
          "name": "upc",
          "type": "uint256"
        }
      ],
      "name": "Harvested",
      "type": "event",
      "signature": "0x8e55ccfc9778ff8eba1646d765cf1982537ce0f9257054a17b48aad745250183"
    },
    {
      "anonymous": false,
      "inputs": [
        {
          "indexed": false,
          "name": "upc",
          "type": "uint256"
        },
        {
          "indexed": false,
          "name": "cooperative",
          "type": "address"
        }
      ],
      "name": "GrappesShipped",
      "type": "event",
      "signature": "0xf4159b4f73b8c23626f19f8bc04d7e074c3d93ddc12f8b174e50d3acdb021187"
    },
    {
      "anonymous": false,
      "inputs": [
        {
          "indexed": false,
          "name": "upc",
          "type": "uint256"
        }
      ],
      "name": "Processed",
      "type": "event",
      "signature": "0x5afe3b1bf87069693c075da5c22a98d63d1aef98a30dbbe538d0781a98b77ee5"
    },
    {
      "anonymous": false,
      "inputs": [
        {
          "indexed": false,
          "name": "upc",
          "type": "uint256"
        }
      ],
      "name": "Aged",
      "type": "event",
      "signature": "0xfa795f995e12c074777bab440425afc98477f6cfceceba5ca50feae5089e59ce"
    },
    {
      "anonymous": false,
      "inputs": [
        {
          "indexed": false,
          "name": "upc",
          "type": "uint256"
        }
      ],
      "name": "Bottled",
      "type": "event",
      "signature": "0x8aff1823bf9f30e2f7eacb17de47cc2917592a34188a0b47c0c228c82c38fc54"
    },
    {
      "anonymous": false,
      "inputs": [
        {
          "indexed": false,
          "name": "upc",
          "type": "uint256"
        }
      ],
      "name": "Boxed",
      "type": "event",
      "signature": "0xe70f42326e85c2ed7f23dfdb2408f440dc9abcb0a9bc37b6e26803ed4690254a"
    },
    {
      "anonymous": false,
      "inputs": [
        {
          "indexed": false,
          "name": "upc",
          "type": "uint256"
        }
      ],
      "name": "ForSale",
      "type": "event",
      "signature": "0xa96ae0fc3224ebd79eebfe54bd130cc9cb94416cddd1f2386115e00b72532468"
    },
    {
      "anonymous": false,
      "inputs": [
        {
          "indexed": false,
          "name": "upc",
          "type": "uint256"
        }
      ],
      "name": "Sold",
      "type": "event",
      "signature": "0x92f64ca637d023f354075a4be751b169c1a8a9ccb6d33cdd0cb3520543995727"
    },
    {
      "anonymous": false,
      "inputs": [
        {
          "indexed": false,
          "name": "upc",
          "type": "uint256"
        }
      ],
      "name": "Shipped",
      "type": "event",
      "signature": "0xf00b9a5725b80c54016f42114f6ed7792d22eecb116011c4afac29c57bef6c95"
    },
    {
      "anonymous": false,
      "inputs": [
        {
          "indexed": false,
          "name": "upc",
          "type": "uint256"
        }
      ],
      "name": "Received",
      "type": "event",
      "signature": "0xa8142743f8f70a4c26f3691cf4ed59718381fb2f18070ec52be1f1022d855557"
    },
    {
      "anonymous": false,
      "inputs": [
        {
          "indexed": false,
          "name": "upc",
          "type": "uint256"
        }
      ],
      "name": "Purchased",
      "type": "event",
      "signature": "0x653d56639fee6b566a5c804764e9689de38645f0b733df89a36a1b7b42173dd8"
    },
    {
      "anonymous": false,
      "inputs": [
        {
          "indexed": true,
          "name": "account",
          "type": "address"
        }
      ],
      "name": "ConsumerAdded",
      "type": "event",
      "signature": "0x28b26e7a3d20aedbc5f8f2ebf7da671c0491723a2b78f47a097b0e46dee07142"
    },
    {
      "anonymous": false,
      "inputs": [
        {
          "indexed": true,
          "name": "account",
          "type": "address"
        }
      ],
      "name": "ConsumerRemoved",
      "type": "event",
      "signature": "0xe3f5ed5f263f1f01764a96edfc7d025f511ec5f7d180e8816908b78bcf74f098"
    },
    {
      "anonymous": false,
      "inputs": [
        {
          "indexed": true,
          "name": "account",
          "type": "address"
        }
      ],
      "name": "RetailerAdded",
      "type": "event",
      "signature": "0x71ae26cad02663e3d92efd6ec56031a80d74a20c0ab4183faa8bf262261c9baa"
    },
    {
      "anonymous": false,
      "inputs": [
        {
          "indexed": true,
          "name": "account",
          "type": "address"
        }
      ],
      "name": "RetailerRemoved",
      "type": "event",
      "signature": "0xdb7176e79cffef81cb01767dd0447a0b24bb72ca9778d4b245581086b2a7e6db"
    },
    {
      "anonymous": false,
      "inputs": [
        {
          "indexed": true,
          "name": "account",
          "type": "address"
        }
      ],
      "name": "DistributorAdded",
      "type": "event",
      "signature": "0xddbf200aa634dc3fb81cfd68583dd1040d1c751d335e1d86b631bde3e977fea8"
    },
    {
      "anonymous": false,
      "inputs": [
        {
          "indexed": true,
          "name": "account",
          "type": "address"
        }
      ],
      "name": "DistributorRemoved",
      "type": "event",
      "signature": "0x126174f6cf49c81cdb4a9214c6b8f037bef55b4ec31e4fc776cea2a1c8a88d59"
    },
    {
      "anonymous": false,
      "inputs": [
        {
          "indexed": true,
          "name": "account",
          "type": "address"
        }
      ],
      "name": "CooperativeAdded",
      "type": "event",
      "signature": "0x579ad2dcd69a75f5a0fe24102090ff11fdcb275fb63aaa7c529bb4d256cd3e1e"
    },
    {
      "anonymous": false,
      "inputs": [
        {
          "indexed": true,
          "name": "account",
          "type": "address"
        }
      ],
      "name": "CooperativeRemoved",
      "type": "event",
      "signature": "0x09fe829558b6a955c7a2f9663311fb4100ff2614b140d4bd4ac01764b5a2f6c9"
    },
    {
      "anonymous": false,
      "inputs": [
        {
          "indexed": true,
          "name": "account",
          "type": "address"
        }
      ],
      "name": "FarmerAdded",
      "type": "event",
      "signature": "0x2e0ded4123377a3c2bc9a26f1717655a129e2f20752924d42e730ec89c83dbd0"
    },
    {
      "anonymous": false,
      "inputs": [
        {
          "indexed": true,
          "name": "account",
          "type": "address"
        }
      ],
      "name": "FarmerRemoved",
      "type": "event",
      "signature": "0xa5e0f060af304ab17dd418c7927e3da3ae7868189bf387aee09ab179ccc572f2"
    },
    {
      "constant": true,
      "inputs": [],
      "name": "contractOwner",
      "outputs": [
        {
          "name": "",
          "type": "address"
        }
      ],
      "payable": false,
      "stateMutability": "view",
      "type": "function",
      "signature": "0xce606ee0"
    },
    {
      "constant": true,
      "inputs": [],
      "name": "isOwner",
      "outputs": [
        {
          "name": "",
          "type": "bool"
        }
      ],
      "payable": false,
      "stateMutability": "view",
      "type": "function",
      "signature": "0x8f32d59b"
    },
    {
      "constant": false,
      "inputs": [],
      "name": "renounceOwnership",
      "outputs": [],
      "payable": false,
      "stateMutability": "nonpayable",
      "type": "function",
      "signature": "0x715018a6"
    },
    {
      "constant": false,
      "inputs": [
        {
          "name": "newOwner",
          "type": "address"
        }
      ],
      "name": "transferOwnership",
      "outputs": [],
      "payable": false,
      "stateMutability": "nonpayable",
      "type": "function",
      "signature": "0xf2fde38b"
    }
  ],
  "bytecode": "0x60806040523480156200001157600080fd5b506200002c33620001a9640100000000026401000000009004565b620000463362000213640100000000026401000000009004565b62000060336200027d640100000000026401000000009004565b6200007a33620002e7640100000000026401000000009004565b620000943362000351640100000000026401000000009004565b33600560006101000a81548173ffffffffffffffffffffffffffffffffffffffff021916908373ffffffffffffffffffffffffffffffffffffffff1602179055506001600781905550600160068190555033600a60006101000a81548173ffffffffffffffffffffffffffffffffffffffff021916908373ffffffffffffffffffffffffffffffffffffffff160217905550600a60009054906101000a900473ffffffffffffffffffffffffffffffffffffffff1673ffffffffffffffffffffffffffffffffffffffff16600073ffffffffffffffffffffffffffffffffffffffff167f5c486528ec3e3f0ea91181cff8116f02bfa350e03b8b6f12e00765adbb5af85c60405160405180910390a362000513565b620001cd816000620003bb6401000000000262003a2e179091906401000000009004565b8073ffffffffffffffffffffffffffffffffffffffff167f2e0ded4123377a3c2bc9a26f1717655a129e2f20752924d42e730ec89c83dbd060405160405180910390a250565b62000237816001620003bb6401000000000262003a2e179091906401000000009004565b8073ffffffffffffffffffffffffffffffffffffffff167f579ad2dcd69a75f5a0fe24102090ff11fdcb275fb63aaa7c529bb4d256cd3e1e60405160405180910390a250565b620002a1816002620003bb6401000000000262003a2e179091906401000000009004565b8073ffffffffffffffffffffffffffffffffffffffff167fddbf200aa634dc3fb81cfd68583dd1040d1c751d335e1d86b631bde3e977fea860405160405180910390a250565b6200030b816003620003bb6401000000000262003a2e179091906401000000009004565b8073ffffffffffffffffffffffffffffffffffffffff167f71ae26cad02663e3d92efd6ec56031a80d74a20c0ab4183faa8bf262261c9baa60405160405180910390a250565b62000375816004620003bb6401000000000262003a2e179091906401000000009004565b8073ffffffffffffffffffffffffffffffffffffffff167f28b26e7a3d20aedbc5f8f2ebf7da671c0491723a2b78f47a097b0e46dee0714260405160405180910390a250565b600073ffffffffffffffffffffffffffffffffffffffff168173ffffffffffffffffffffffffffffffffffffffff1614151515620003f857600080fd5b6200041382826200047e640100000000026401000000009004565b1515156200042057600080fd5b60018260000160008373ffffffffffffffffffffffffffffffffffffffff1673ffffffffffffffffffffffffffffffffffffffff16815260200190815260200160002060006101000a81548160ff0219169083151502179055505050565b60008073ffffffffffffffffffffffffffffffffffffffff168273ffffffffffffffffffffffffffffffffffffffff1614151515620004bc57600080fd5b8260000160008373ffffffffffffffffffffffffffffffffffffffff1673ffffffffffffffffffffffffffffffffffffffff16815260200190815260200160002060009054906101000a900460ff16905092915050565b613d6b80620005236000396000f3fe6080604052600436106101a1576000357c0100000000000000000000000000000000000000000000000000000000900463ffffffff16806311120f65146101a6578063112940f9146101eb5780631c7842aa1461023c57806324c966aa146102775780633c59ed15146102d257806341c0e1b51461030d57806349dae766146103245780635da09b881461035f57806361e6982d146103c8578063644241db146103df57806366225ff9146103f6578063715018a6146105995780637250e224146105b057806377c459131461060157806380c3f96d1461086d57806380fc0ce4146108be578063834ff739146108d55780638ec4f5051461093e5780638f0c86fa1461098f5780638f32d59b146109f8578063a3fac13714610a27578063b50f60e714610a90578063b585a6b114610ad5578063b942906914610b10578063bb4f288d14610b79578063bdd8a6a814610bd4578063ce606ee014610f22578063d38ea5bf14610f79578063db0e6a2f14610fa7578063e7fb74c714610fbe578063eb34ce8c14610fec578063ebeab3f914611003578063f2fde38b14611054575b600080fd5b3480156101b257600080fd5b506101e9600480360360408110156101c957600080fd5b8101908080359060200190929190803590602001909291905050506110a5565b005b3480156101f757600080fd5b5061023a6004803603602081101561020e57600080fd5b81019080803573ffffffffffffffffffffffffffffffffffffffff1690602001909291905050506111fd565b005b34801561024857600080fd5b506102756004803603602081101561025f57600080fd5b810190808035906020019092919050505061121d565b005b34801561028357600080fd5b506102d06004803603604081101561029a57600080fd5b8101908080359060200190929190803573ffffffffffffffffffffffffffffffffffffffff16906020019092919050505061136b565b005b3480156102de57600080fd5b5061030b600480360360208110156102f557600080fd5b8101908080359060200190929190505050611574565b005b34801561031957600080fd5b506103226116c2565b005b34801561033057600080fd5b5061035d6004803603602081101561034757600080fd5b8101908080359060200190929190505050611755565b005b34801561036b57600080fd5b506103ae6004803603602081101561038257600080fd5b81019080803573ffffffffffffffffffffffffffffffffffffffff1690602001909291905050506118a3565b604051808215151515815260200191505060405180910390f35b3480156103d457600080fd5b506103dd6118c0565b005b3480156103eb57600080fd5b506103f46118cb565b005b34801561040257600080fd5b5061042f6004803603602081101561041957600080fd5b81019080803590602001909291905050506118d6565b604051808b81526020018a8152602001898152602001806020018881526020018781526020018673ffffffffffffffffffffffffffffffffffffffff1673ffffffffffffffffffffffffffffffffffffffff1681526020018573ffffffffffffffffffffffffffffffffffffffff1673ffffffffffffffffffffffffffffffffffffffff1681526020018473ffffffffffffffffffffffffffffffffffffffff1673ffffffffffffffffffffffffffffffffffffffff1681526020018373ffffffffffffffffffffffffffffffffffffffff1673ffffffffffffffffffffffffffffffffffffffff168152602001828103825289818151815260200191508051906020019080838360005b8381101561055557808201518184015260208101905061053a565b50505050905090810190601f1680156105825780820380516001836020036101000a031916815260200191505b509b50505050505050505050505060405180910390f35b3480156105a557600080fd5b506105ae611f09565b005b3480156105bc57600080fd5b506105ff600480360360208110156105d357600080fd5b81019080803573ffffffffffffffffffffffffffffffffffffffff169060200190929190505050611fdd565b005b34801561060d57600080fd5b5061063a6004803603602081101561062457600080fd5b8101908080359060200190929190505050611ffd565b604051808981526020018881526020018773ffffffffffffffffffffffffffffffffffffffff1673ffffffffffffffffffffffffffffffffffffffff1681526020018673ffffffffffffffffffffffffffffffffffffffff1673ffffffffffffffffffffffffffffffffffffffff16815260200180602001806020018060200180602001858103855289818151815260200191508051906020019080838360005b838110156106f65780820151818401526020810190506106db565b50505050905090810190601f1680156107235780820380516001836020036101000a031916815260200191505b50858103845288818151815260200191508051906020019080838360005b8381101561075c578082015181840152602081019050610741565b50505050905090810190601f1680156107895780820380516001836020036101000a031916815260200191505b50858103835287818151815260200191508051906020019080838360005b838110156107c25780820151818401526020810190506107a7565b50505050905090810190601f1680156107ef5780820380516001836020036101000a031916815260200191505b50858103825286818151815260200191508051906020019080838360005b8381101561082857808201518184015260208101905061080d565b50505050905090810190601f1680156108555780820380516001836020036101000a031916815260200191505b509c5050505050505050505050505060405180910390f35b34801561087957600080fd5b506108bc6004803603602081101561089057600080fd5b81019080803573ffffffffffffffffffffffffffffffffffffffff169060200190929190505050612606565b005b3480156108ca57600080fd5b506108d3612626565b005b3480156108e157600080fd5b50610924600480360360208110156108f857600080fd5b81019080803573ffffffffffffffffffffffffffffffffffffffff169060200190929190505050612631565b604051808215151515815260200191505060405180910390f35b34801561094a57600080fd5b5061098d6004803603602081101561096157600080fd5b81019080803573ffffffffffffffffffffffffffffffffffffffff16906020019092919050505061264e565b005b34801561099b57600080fd5b506109de600480360360208110156109b257600080fd5b81019080803573ffffffffffffffffffffffffffffffffffffffff16906020019092919050505061266e565b604051808215151515815260200191505060405180910390f35b348015610a0457600080fd5b50610a0d61268b565b604051808215151515815260200191505060405180910390f35b348015610a3357600080fd5b50610a7660048036036020811015610a4a57600080fd5b81019080803573ffffffffffffffffffffffffffffffffffffffff1690602001909291905050506126e3565b604051808215151515815260200191505060405180910390f35b348015610a9c57600080fd5b50610ad360048036036040811015610ab357600080fd5b810190808035906020019092919080359060200190929190505050612700565b005b348015610ae157600080fd5b50610b0e60048036036020811015610af857600080fd5b8101908080359060200190929190505050612858565b005b348015610b1c57600080fd5b50610b5f60048036036020811015610b3357600080fd5b81019080803573ffffffffffffffffffffffffffffffffffffffff1690602001909291905050506129a6565b604051808215151515815260200191505060405180910390f35b348015610b8557600080fd5b50610bd260048036036040811015610b9c57600080fd5b8101908080359060200190929190803573ffffffffffffffffffffffffffffffffffffffff1690602001909291905050506129c3565b005b348015610be057600080fd5b50610f20600480360360e0811015610bf757600080fd5b8101908080359060200190929190803573ffffffffffffffffffffffffffffffffffffffff16906020019092919080359060200190640100000000811115610c3e57600080fd5b820183602082011115610c5057600080fd5b80359060200191846001830284011164010000000083111715610c7257600080fd5b91908080601f016020809104026020016040519081016040528093929190818152602001838380828437600081840152601f19601f82011690508083019250505050505050919291929080359060200190640100000000811115610cd557600080fd5b820183602082011115610ce757600080fd5b80359060200191846001830284011164010000000083111715610d0957600080fd5b91908080601f016020809104026020016040519081016040528093929190818152602001838380828437600081840152601f19601f82011690508083019250505050505050919291929080359060200190640100000000811115610d6c57600080fd5b820183602082011115610d7e57600080fd5b80359060200191846001830284011164010000000083111715610da057600080fd5b91908080601f016020809104026020016040519081016040528093929190818152602001838380828437600081840152601f19601f82011690508083019250505050505050919291929080359060200190640100000000811115610e0357600080fd5b820183602082011115610e1557600080fd5b80359060200191846001830284011164010000000083111715610e3757600080fd5b91908080601f016020809104026020016040519081016040528093929190818152602001838380828437600081840152601f19601f82011690508083019250505050505050919291929080359060200190640100000000811115610e9a57600080fd5b820183602082011115610eac57600080fd5b80359060200191846001830284011164010000000083111715610ece57600080fd5b91908080601f016020809104026020016040519081016040528093929190818152602001838380828437600081840152601f19601f820116905080830192505050505050509192919290505050612bae565b005b348015610f2e57600080fd5b50610f37612fd1565b604051808273ffffffffffffffffffffffffffffffffffffffff1673ffffffffffffffffffffffffffffffffffffffff16815260200191505060405180910390f35b610fa560048036036020811015610f8f57600080fd5b8101908080359060200190929190505050612ffb565b005b348015610fb357600080fd5b50610fbc613260565b005b610fea60048036036020811015610fd457600080fd5b810190808035906020019092919050505061326b565b005b348015610ff857600080fd5b506110016134d0565b005b34801561100f57600080fd5b506110526004803603602081101561102657600080fd5b81019080803573ffffffffffffffffffffffffffffffffffffffff1690602001909291905050506134db565b005b34801561106057600080fd5b506110a36004803603602081101561107757600080fd5b81019080803573ffffffffffffffffffffffffffffffffffffffff1690602001909291905050506134fb565b005b816005600a8111156110b357fe5b60086000838152602001908152602001600020600b0160009054906101000a900460ff16600a8111156110e257fe5b1415156110ee57600080fd5b8260006008600083815260200190815260200160002090508060020160009054906101000a900473ffffffffffffffffffffffffffffffffffffffff1673ffffffffffffffffffffffffffffffffffffffff163373ffffffffffffffffffffffffffffffffffffffff1614151561116457600080fd5b61116d336126e3565b151561117857600080fd5b6000600860008781526020019081526020016000209050600681600b0160006101000a81548160ff0219169083600a8111156111b057fe5b02179055508481600a01819055507fa96ae0fc3224ebd79eebfe54bd130cc9cb94416cddd1f2386115e00b72532468866040518082815260200191505060405180910390a1505050505050565b61120633612631565b151561121157600080fd5b61121a8161351a565b50565b806004600a81111561122b57fe5b60086000838152602001908152602001600020600b0160009054906101000a900460ff16600a81111561125a57fe5b14151561126657600080fd5b8160006008600083815260200190815260200160002090508060020160009054906101000a900473ffffffffffffffffffffffffffffffffffffffff1673ffffffffffffffffffffffffffffffffffffffff163373ffffffffffffffffffffffffffffffffffffffff161415156112dc57600080fd5b6112e5336126e3565b15156112f057600080fd5b6000600860008681526020019081526020016000209050600581600b0160006101000a81548160ff0219169083600a81111561132857fe5b02179055507fe70f42326e85c2ed7f23dfdb2408f440dc9abcb0a9bc37b6e26803ed4690254a856040518082815260200191505060405180910390a15050505050565b816000600a81111561137957fe5b60086000838152602001908152602001600020600b0160009054906101000a900460ff16600a8111156113a857fe5b1415156113b457600080fd5b8260006008600083815260200190815260200160002090508060020160009054906101000a900473ffffffffffffffffffffffffffffffffffffffff1673ffffffffffffffffffffffffffffffffffffffff163373ffffffffffffffffffffffffffffffffffffffff1614151561142a57600080fd5b611433336129a6565b151561143e57600080fd5b6000600860008781526020019081526020016000209050600181600b0160006101000a81548160ff0219169083600a81111561147657fe5b0217905550848160020160006101000a81548173ffffffffffffffffffffffffffffffffffffffff021916908373ffffffffffffffffffffffffffffffffffffffff1602179055508481600b0160016101000a81548173ffffffffffffffffffffffffffffffffffffffff021916908373ffffffffffffffffffffffffffffffffffffffff1602179055507ff4159b4f73b8c23626f19f8bc04d7e074c3d93ddc12f8b174e50d3acdb0211878686604051808381526020018273ffffffffffffffffffffffffffffffffffffffff1673ffffffffffffffffffffffffffffffffffffffff1681526020019250505060405180910390a1505050505050565b806002600a81111561158257fe5b60086000838152602001908152602001600020600b0160009054906101000a900460ff16600a8111156115b157fe5b1415156115bd57600080fd5b8160006008600083815260200190815260200160002090508060020160009054906101000a900473ffffffffffffffffffffffffffffffffffffffff1673ffffffffffffffffffffffffffffffffffffffff163373ffffffffffffffffffffffffffffffffffffffff1614151561163357600080fd5b61163c336126e3565b151561164757600080fd5b6000600860008681526020019081526020016000209050600381600b0160006101000a81548160ff0219169083600a81111561167f57fe5b02179055507ffa795f995e12c074777bab440425afc98477f6cfceceba5ca50feae5089e59ce856040518082815260200191505060405180910390a15050505050565b600560009054906101000a900473ffffffffffffffffffffffffffffffffffffffff1673ffffffffffffffffffffffffffffffffffffffff163373ffffffffffffffffffffffffffffffffffffffff16141561175357600560009054906101000a900473ffffffffffffffffffffffffffffffffffffffff1673ffffffffffffffffffffffffffffffffffffffff16ff5b565b806001600a81111561176357fe5b60086000838152602001908152602001600020600b0160009054906101000a900460ff16600a81111561179257fe5b14151561179e57600080fd5b8160006008600083815260200190815260200160002090508060020160009054906101000a900473ffffffffffffffffffffffffffffffffffffffff1673ffffffffffffffffffffffffffffffffffffffff163373ffffffffffffffffffffffffffffffffffffffff1614151561181457600080fd5b61181d336126e3565b151561182857600080fd5b6000600860008681526020019081526020016000209050600281600b0160006101000a81548160ff0219169083600a81111561186057fe5b02179055507f5afe3b1bf87069693c075da5c22a98d63d1aef98a30dbbe538d0781a98b77ee5856040518082815260200191505060405180910390a15050505050565b60006118b982600361357490919063ffffffff16565b9050919050565b6118c933613608565b565b6118d433613662565b565b600080600060606000806000806000806118ee613b8d565b600860008d8152602001908152602001600020610200604051908101604052908160008201548152602001600182015481526020016002820160009054906101000a900473ffffffffffffffffffffffffffffffffffffffff1673ffffffffffffffffffffffffffffffffffffffff1673ffffffffffffffffffffffffffffffffffffffff1681526020016003820160009054906101000a900473ffffffffffffffffffffffffffffffffffffffff1673ffffffffffffffffffffffffffffffffffffffff1673ffffffffffffffffffffffffffffffffffffffff168152602001600482018054600181600116156101000203166002900480601f016020809104026020016040519081016040528092919081815260200182805460018160011615610100020316600290048015611a675780601f10611a3c57610100808354040283529160200191611a67565b820191906000526020600020905b815481529060010190602001808311611a4a57829003601f168201915b50505050508152602001600582018054600181600116156101000203166002900480601f016020809104026020016040519081016040528092919081815260200182805460018160011615610100020316600290048015611b095780601f10611ade57610100808354040283529160200191611b09565b820191906000526020600020905b815481529060010190602001808311611aec57829003601f168201915b50505050508152602001600682018054600181600116156101000203166002900480601f016020809104026020016040519081016040528092919081815260200182805460018160011615610100020316600290048015611bab5780601f10611b8057610100808354040283529160200191611bab565b820191906000526020600020905b815481529060010190602001808311611b8e57829003601f168201915b50505050508152602001600782018054600181600116156101000203166002900480601f016020809104026020016040519081016040528092919081815260200182805460018160011615610100020316600290048015611c4d5780601f10611c2257610100808354040283529160200191611c4d565b820191906000526020600020905b815481529060010190602001808311611c3057829003601f168201915b5050505050815260200160088201548152602001600982018054600181600116156101000203166002900480601f016020809104026020016040519081016040528092919081815260200182805460018160011615610100020316600290048015611cf95780601f10611cce57610100808354040283529160200191611cf9565b820191906000526020600020905b815481529060010190602001808311611cdc57829003601f168201915b50505050508152602001600a8201548152602001600b820160009054906101000a900460ff16600a811115611d2a57fe5b600a811115611d3557fe5b8152602001600b820160019054906101000a900473ffffffffffffffffffffffffffffffffffffffff1673ffffffffffffffffffffffffffffffffffffffff1673ffffffffffffffffffffffffffffffffffffffff168152602001600c820160009054906101000a900473ffffffffffffffffffffffffffffffffffffffff1673ffffffffffffffffffffffffffffffffffffffff1673ffffffffffffffffffffffffffffffffffffffff168152602001600d820160009054906101000a900473ffffffffffffffffffffffffffffffffffffffff1673ffffffffffffffffffffffffffffffffffffffff1673ffffffffffffffffffffffffffffffffffffffff168152602001600e820160009054906101000a900473ffffffffffffffffffffffffffffffffffffffff1673ffffffffffffffffffffffffffffffffffffffff1673ffffffffffffffffffffffffffffffffffffffff1681525050905080600001518160200151826101000151836101200151846101400151856101600151600a811115611ec057fe5b866101800151876101a00151886101c00151896101e001518696508393508292508191508090509a509a509a509a509a509a509a509a509a509a50509193959799509193959799565b611f1161268b565b1515611f1c57600080fd5b600073ffffffffffffffffffffffffffffffffffffffff16600a60009054906101000a900473ffffffffffffffffffffffffffffffffffffffff1673ffffffffffffffffffffffffffffffffffffffff167f5c486528ec3e3f0ea91181cff8116f02bfa350e03b8b6f12e00765adbb5af85c60405160405180910390a36000600a60006101000a81548173ffffffffffffffffffffffffffffffffffffffff021916908373ffffffffffffffffffffffffffffffffffffffff160217905550565b611fe63361266e565b1515611ff157600080fd5b611ffa816136bc565b50565b600080600080606080606080612011613b8d565b600860008b8152602001908152602001600020610200604051908101604052908160008201548152602001600182015481526020016002820160009054906101000a900473ffffffffffffffffffffffffffffffffffffffff1673ffffffffffffffffffffffffffffffffffffffff1673ffffffffffffffffffffffffffffffffffffffff1681526020016003820160009054906101000a900473ffffffffffffffffffffffffffffffffffffffff1673ffffffffffffffffffffffffffffffffffffffff1673ffffffffffffffffffffffffffffffffffffffff168152602001600482018054600181600116156101000203166002900480601f01602080910402602001604051908101604052809291908181526020018280546001816001161561010002031660029004801561218a5780601f1061215f5761010080835404028352916020019161218a565b820191906000526020600020905b81548152906001019060200180831161216d57829003601f168201915b50505050508152602001600582018054600181600116156101000203166002900480601f01602080910402602001604051908101604052809291908181526020018280546001816001161561010002031660029004801561222c5780601f106122015761010080835404028352916020019161222c565b820191906000526020600020905b81548152906001019060200180831161220f57829003601f168201915b50505050508152602001600682018054600181600116156101000203166002900480601f0160208091040260200160405190810160405280929190818152602001828054600181600116156101000203166002900480156122ce5780601f106122a3576101008083540402835291602001916122ce565b820191906000526020600020905b8154815290600101906020018083116122b157829003601f168201915b50505050508152602001600782018054600181600116156101000203166002900480601f0160208091040260200160405190810160405280929190818152602001828054600181600116156101000203166002900480156123705780601f1061234557610100808354040283529160200191612370565b820191906000526020600020905b81548152906001019060200180831161235357829003601f168201915b5050505050815260200160088201548152602001600982018054600181600116156101000203166002900480601f01602080910402602001604051908101604052809291908181526020018280546001816001161561010002031660029004801561241c5780601f106123f15761010080835404028352916020019161241c565b820191906000526020600020905b8154815290600101906020018083116123ff57829003601f168201915b50505050508152602001600a8201548152602001600b820160009054906101000a900460ff16600a81111561244d57fe5b600a81111561245857fe5b8152602001600b820160019054906101000a900473ffffffffffffffffffffffffffffffffffffffff1673ffffffffffffffffffffffffffffffffffffffff1673ffffffffffffffffffffffffffffffffffffffff168152602001600c820160009054906101000a900473ffffffffffffffffffffffffffffffffffffffff1673ffffffffffffffffffffffffffffffffffffffff1673ffffffffffffffffffffffffffffffffffffffff168152602001600d820160009054906101000a900473ffffffffffffffffffffffffffffffffffffffff1673ffffffffffffffffffffffffffffffffffffffff1673ffffffffffffffffffffffffffffffffffffffff168152602001600e820160009054906101000a900473ffffffffffffffffffffffffffffffffffffffff1673ffffffffffffffffffffffffffffffffffffffff1673ffffffffffffffffffffffffffffffffffffffff16815250509050806000015181602001518260400151836060015184608001518560a001518660c001518760e001518393508292508191508090509850985098509850985098509850985050919395975091939597565b61260f336129a6565b151561261a57600080fd5b61262381613716565b50565b61262f33613770565b565b600061264782600461357490919063ffffffff16565b9050919050565b612657336118a3565b151561266257600080fd5b61266b816137ca565b50565b600061268482600261357490919063ffffffff16565b9050919050565b6000600a60009054906101000a900473ffffffffffffffffffffffffffffffffffffffff1673ffffffffffffffffffffffffffffffffffffffff163373ffffffffffffffffffffffffffffffffffffffff1614905090565b60006126f982600161357490919063ffffffff16565b9050919050565b816008600a81111561270e57fe5b60086000838152602001908152602001600020600b0160009054906101000a900460ff16600a81111561273d57fe5b14151561274957600080fd5b8260006008600083815260200190815260200160002090508060020160009054906101000a900473ffffffffffffffffffffffffffffffffffffffff1673ffffffffffffffffffffffffffffffffffffffff163373ffffffffffffffffffffffffffffffffffffffff161415156127bf57600080fd5b6127c8336118a3565b15156127d357600080fd5b6000600860008781526020019081526020016000209050600981600b0160006101000a81548160ff0219169083600a81111561280b57fe5b02179055508481600a01819055507fa8142743f8f70a4c26f3691cf4ed59718381fb2f18070ec52be1f1022d855557866040518082815260200191505060405180910390a1505050505050565b806003600a81111561286657fe5b60086000838152602001908152602001600020600b0160009054906101000a900460ff16600a81111561289557fe5b1415156128a157600080fd5b8160006008600083815260200190815260200160002090508060020160009054906101000a900473ffffffffffffffffffffffffffffffffffffffff1673ffffffffffffffffffffffffffffffffffffffff163373ffffffffffffffffffffffffffffffffffffffff1614151561291757600080fd5b612920336126e3565b151561292b57600080fd5b6000600860008681526020019081526020016000209050600481600b0160006101000a81548160ff0219169083600a81111561296357fe5b02179055507f8aff1823bf9f30e2f7eacb17de47cc2917592a34188a0b47c0c228c82c38fc54856040518082815260200191505060405180910390a15050505050565b60006129bc82600061357490919063ffffffff16565b9050919050565b816007600a8111156129d157fe5b60086000838152602001908152602001600020600b0160009054906101000a900460ff16600a811115612a0057fe5b141515612a0c57600080fd5b8260006008600083815260200190815260200160002090508060020160009054906101000a900473ffffffffffffffffffffffffffffffffffffffff1673ffffffffffffffffffffffffffffffffffffffff163373ffffffffffffffffffffffffffffffffffffffff16141515612a8257600080fd5b83612a8c816118a3565b1515612a9757600080fd5b612aa03361266e565b1515612aab57600080fd5b6000600860008881526020019081526020016000209050600881600b0160006101000a81548160ff0219169083600a811115612ae357fe5b0217905550858160020160006101000a81548173ffffffffffffffffffffffffffffffffffffffff021916908373ffffffffffffffffffffffffffffffffffffffff1602179055508581600d0160006101000a81548173ffffffffffffffffffffffffffffffffffffffff021916908373ffffffffffffffffffffffffffffffffffffffff1602179055507ff00b9a5725b80c54016f42114f6ed7792d22eecb116011c4afac29c57bef6c95876040518082815260200191505060405180910390a150505050505050565b612bb7336129a6565b1515612bc257600080fd5b612bca613b8d565b6102006040519081016040528060075481526020018981526020018873ffffffffffffffffffffffffffffffffffffffff1681526020018873ffffffffffffffffffffffffffffffffffffffff16815260200187815260200186815260200185815260200184815260200189600754018152602001838152602001600081526020016000600a811115612c5957fe5b8152602001600073ffffffffffffffffffffffffffffffffffffffff168152602001600073ffffffffffffffffffffffffffffffffffffffff168152602001600073ffffffffffffffffffffffffffffffffffffffff168152602001600073ffffffffffffffffffffffffffffffffffffffff16815250905080600860008a8152602001908152602001600020600082015181600001556020820151816001015560408201518160020160006101000a81548173ffffffffffffffffffffffffffffffffffffffff021916908373ffffffffffffffffffffffffffffffffffffffff16021790555060608201518160030160006101000a81548173ffffffffffffffffffffffffffffffffffffffff021916908373ffffffffffffffffffffffffffffffffffffffff1602179055506080820151816004019080519060200190612da4929190613c9a565b5060a0820151816005019080519060200190612dc1929190613c9a565b5060c0820151816006019080519060200190612dde929190613c9a565b5060e0820151816007019080519060200190612dfb929190613c9a565b506101008201518160080155610120820151816009019080519060200190612e24929190613c9a565b5061014082015181600a015561016082015181600b0160006101000a81548160ff0219169083600a811115612e5557fe5b021790555061018082015181600b0160016101000a81548173ffffffffffffffffffffffffffffffffffffffff021916908373ffffffffffffffffffffffffffffffffffffffff1602179055506101a082015181600c0160006101000a81548173ffffffffffffffffffffffffffffffffffffffff021916908373ffffffffffffffffffffffffffffffffffffffff1602179055506101c082015181600d0160006101000a81548173ffffffffffffffffffffffffffffffffffffffff021916908373ffffffffffffffffffffffffffffffffffffffff1602179055506101e082015181600e0160006101000a81548173ffffffffffffffffffffffffffffffffffffffff021916908373ffffffffffffffffffffffffffffffffffffffff160217905550905050600160075401600781905550876006819055507f8e55ccfc9778ff8eba1646d765cf1982537ce0f9257054a17b48aad745250183886040518082815260200191505060405180910390a15050505050505050565b6000600a60009054906101000a900473ffffffffffffffffffffffffffffffffffffffff16905090565b806009600a81111561300957fe5b60086000838152602001908152602001600020600b0160009054906101000a900460ff16600a81111561303857fe5b14151561304457600080fd5b81600060086000838152602001908152602001600020905080600a0154341015151561306f57600080fd5b61307833612631565b151561308357600080fd5b836000600860008781526020019081526020016000209050600a81600b0160006101000a81548160ff0219169083600a8111156130bc57fe5b0217905550338160020160006101000a81548173ffffffffffffffffffffffffffffffffffffffff021916908373ffffffffffffffffffffffffffffffffffffffff1602179055503381600e0160006101000a81548173ffffffffffffffffffffffffffffffffffffffff021916908373ffffffffffffffffffffffffffffffffffffffff16021790555080600d0160009054906101000a900473ffffffffffffffffffffffffffffffffffffffff1673ffffffffffffffffffffffffffffffffffffffff166108fc82600a01549081150290604051600060405180830381858888f193505050501580156131b5573d6000803e3d6000fd5b507f653d56639fee6b566a5c804764e9689de38645f0b733df89a36a1b7b42173dd8866040518082815260200191505060405180910390a150600060086000838152602001908152602001600020600a01549050600081340390503373ffffffffffffffffffffffffffffffffffffffff166108fc829081150290604051600060405180830381858888f19350505050158015613256573d6000803e3d6000fd5b5050505050505050565b61326933613824565b565b806006600a81111561327957fe5b60086000838152602001908152602001600020600b0160009054906101000a900460ff16600a8111156132a857fe5b1415156132b457600080fd5b81600060086000838152602001908152602001600020905080600a015434101515156132df57600080fd5b6132e83361266e565b15156132f357600080fd5b836000600860008781526020019081526020016000209050600781600b0160006101000a81548160ff0219169083600a81111561332c57fe5b0217905550338160020160006101000a81548173ffffffffffffffffffffffffffffffffffffffff021916908373ffffffffffffffffffffffffffffffffffffffff1602179055503381600c0160006101000a81548173ffffffffffffffffffffffffffffffffffffffff021916908373ffffffffffffffffffffffffffffffffffffffff16021790555080600b0160019054906101000a900473ffffffffffffffffffffffffffffffffffffffff1673ffffffffffffffffffffffffffffffffffffffff166108fc82600a01549081150290604051600060405180830381858888f19350505050158015613425573d6000803e3d6000fd5b507f92f64ca637d023f354075a4be751b169c1a8a9ccb6d33cdd0cb3520543995727866040518082815260200191505060405180910390a150600060086000838152602001908152602001600020600a01549050600081340390503373ffffffffffffffffffffffffffffffffffffffff166108fc829081150290604051600060405180830381858888f193505050501580156134c6573d6000803e3d6000fd5b5050505050505050565b6134d93361387e565b565b6134e4336126e3565b15156134ef57600080fd5b6134f8816138d8565b50565b61350361268b565b151561350e57600080fd5b61351781613932565b50565b61352e816004613a2e90919063ffffffff16565b8073ffffffffffffffffffffffffffffffffffffffff167f28b26e7a3d20aedbc5f8f2ebf7da671c0491723a2b78f47a097b0e46dee0714260405160405180910390a250565b60008073ffffffffffffffffffffffffffffffffffffffff168273ffffffffffffffffffffffffffffffffffffffff16141515156135b157600080fd5b8260000160008373ffffffffffffffffffffffffffffffffffffffff1673ffffffffffffffffffffffffffffffffffffffff16815260200190815260200160002060009054906101000a900460ff16905092915050565b61361c816004613ade90919063ffffffff16565b8073ffffffffffffffffffffffffffffffffffffffff167fe3f5ed5f263f1f01764a96edfc7d025f511ec5f7d180e8816908b78bcf74f09860405160405180910390a250565b613676816002613ade90919063ffffffff16565b8073ffffffffffffffffffffffffffffffffffffffff167f126174f6cf49c81cdb4a9214c6b8f037bef55b4ec31e4fc776cea2a1c8a88d5960405160405180910390a250565b6136d0816002613a2e90919063ffffffff16565b8073ffffffffffffffffffffffffffffffffffffffff167fddbf200aa634dc3fb81cfd68583dd1040d1c751d335e1d86b631bde3e977fea860405160405180910390a250565b61372a816000613a2e90919063ffffffff16565b8073ffffffffffffffffffffffffffffffffffffffff167f2e0ded4123377a3c2bc9a26f1717655a129e2f20752924d42e730ec89c83dbd060405160405180910390a250565b613784816000613ade90919063ffffffff16565b8073ffffffffffffffffffffffffffffffffffffffff167fa5e0f060af304ab17dd418c7927e3da3ae7868189bf387aee09ab179ccc572f260405160405180910390a250565b6137de816003613a2e90919063ffffffff16565b8073ffffffffffffffffffffffffffffffffffffffff167f71ae26cad02663e3d92efd6ec56031a80d74a20c0ab4183faa8bf262261c9baa60405160405180910390a250565b613838816003613ade90919063ffffffff16565b8073ffffffffffffffffffffffffffffffffffffffff167fdb7176e79cffef81cb01767dd0447a0b24bb72ca9778d4b245581086b2a7e6db60405160405180910390a250565b613892816001613ade90919063ffffffff16565b8073ffffffffffffffffffffffffffffffffffffffff167f09fe829558b6a955c7a2f9663311fb4100ff2614b140d4bd4ac01764b5a2f6c960405160405180910390a250565b6138ec816001613a2e90919063ffffffff16565b8073ffffffffffffffffffffffffffffffffffffffff167f579ad2dcd69a75f5a0fe24102090ff11fdcb275fb63aaa7c529bb4d256cd3e1e60405160405180910390a250565b600073ffffffffffffffffffffffffffffffffffffffff168173ffffffffffffffffffffffffffffffffffffffff161415151561396e57600080fd5b8073ffffffffffffffffffffffffffffffffffffffff16600a60009054906101000a900473ffffffffffffffffffffffffffffffffffffffff1673ffffffffffffffffffffffffffffffffffffffff167f5c486528ec3e3f0ea91181cff8116f02bfa350e03b8b6f12e00765adbb5af85c60405160405180910390a380600a60006101000a81548173ffffffffffffffffffffffffffffffffffffffff021916908373ffffffffffffffffffffffffffffffffffffffff16021790555050565b600073ffffffffffffffffffffffffffffffffffffffff168173ffffffffffffffffffffffffffffffffffffffff1614151515613a6a57600080fd5b613a748282613574565b151515613a8057600080fd5b60018260000160008373ffffffffffffffffffffffffffffffffffffffff1673ffffffffffffffffffffffffffffffffffffffff16815260200190815260200160002060006101000a81548160ff0219169083151502179055505050565b600073ffffffffffffffffffffffffffffffffffffffff168173ffffffffffffffffffffffffffffffffffffffff1614151515613b1a57600080fd5b613b248282613574565b1515613b2f57600080fd5b60008260000160008373ffffffffffffffffffffffffffffffffffffffff1673ffffffffffffffffffffffffffffffffffffffff16815260200190815260200160002060006101000a81548160ff0219169083151502179055505050565b610200604051908101604052806000815260200160008152602001600073ffffffffffffffffffffffffffffffffffffffff168152602001600073ffffffffffffffffffffffffffffffffffffffff168152602001606081526020016060815260200160608152602001606081526020016000815260200160608152602001600081526020016000600a811115613c2057fe5b8152602001600073ffffffffffffffffffffffffffffffffffffffff168152602001600073ffffffffffffffffffffffffffffffffffffffff168152602001600073ffffffffffffffffffffffffffffffffffffffff168152602001600073ffffffffffffffffffffffffffffffffffffffff1681525090565b828054600181600116156101000203166002900490600052602060002090601f016020900481019282601f10613cdb57805160ff1916838001178555613d09565b82800160010185558215613d09579182015b82811115613d08578251825591602001919060010190613ced565b5b509050613d169190613d1a565b5090565b613d3c91905b80821115613d38576000816000905550600101613d20565b5090565b9056fea165627a7a723058208552eebdbdf0f4ec36a236eef9caa265ed1b6606add05a2de4496380da37162c0029",
  "source": "pragma solidity >=0.4.21 <0.6.0;\n\nimport \"../supply/SupplyChain.sol\";\n\ncontract Ownable is SupplyChain {\n    address private origOwner;\n\n    // Define an Event\n    event TransferOwnership(address indexed oldOwner, address indexed newOwner);\n\n    /// Assign the contract to an owner\n    constructor () public {\n        origOwner = msg.sender;\n        emit TransferOwnership(address(0), origOwner);\n    }\n\n    /// Look up the address of the owner\n    function contractOwner() public view returns (address) {\n        return origOwner;\n    }\n\n    /// Define a function modifier 'onlyOwner'\n    modifier onlyOwner() {\n        require(isOwner());\n        _;\n    }\n\n    /// Check if the calling address is the owner of the contract\n    function isOwner() public view returns (bool) {\n        return msg.sender == origOwner;\n    }\n\n    /// Define a function to renounce ownerhip\n    function renounceOwnership() public onlyOwner {\n        emit TransferOwnership(origOwner, address(0));\n        origOwner = address(0);\n    }\n\n    /// Define a public function to transfer ownership\n    function transferOwnership(address newOwner) public onlyOwner {\n        _transferOwnership(newOwner);\n    }\n\n    /// Define an internal function to transfer ownership\n    function _transferOwnership(address newOwner) internal {\n        require(newOwner != address(0));\n        emit TransferOwnership(origOwner, newOwner);\n        origOwner = newOwner;\n    }\n}\n",
  "sourcePath": "/home/nmiguelmoura/Documents/projects/blockchain/wine-supply-chain/contracts/core/Ownable.sol",
  "compiler": {
    "name": "solc",
    "version": "0.5.0+commit.1d4f565a.Emscripten.clang"
  },
  "schemaVersion": "3.0.0",
  "updatedAt": "2019-01-13T12:44:01.181Z",
  "devdoc": {
    "methods": {}
  },
  "userdoc": {
    "methods": {
      "constructor": "Assign the contract to an owner",
      "contractOwner()": {
        "notice": "Look up the address of the owner"
      },
      "isOwner()": {
        "notice": "Check if the calling address is the owner of the contract"
      },
      "renounceOwnership()": {
        "notice": "Define a function to renounce ownerhip"
      },
      "transferOwnership(address)": {
        "notice": "Define a public function to transfer ownership"
      }
    }
  }
}