{
  "contractName": "SupplyChain",
  "abi": [
    {
      "constant": false,
      "inputs": [
        {
          "name": "account",
          "type": "address"
        }
      ],
      "name": "addConsumer",
      "outputs": [],
      "payable": false,
      "stateMutability": "nonpayable",
      "type": "function",
      "signature": "0x112940f9"
    },
    {
      "constant": true,
      "inputs": [
        {
          "name": "account",
          "type": "address"
        }
      ],
      "name": "isRetailer",
      "outputs": [
        {
          "name": "",
          "type": "bool"
        }
      ],
      "payable": false,
      "stateMutability": "view",
      "type": "function",
      "signature": "0x5da09b88"
    },
    {
      "constant": false,
      "inputs": [],
      "name": "renounceConsumer",
      "outputs": [],
      "payable": false,
      "stateMutability": "nonpayable",
      "type": "function",
      "signature": "0x61e6982d"
    },
    {
      "constant": false,
      "inputs": [],
      "name": "renounceDistributor",
      "outputs": [],
      "payable": false,
      "stateMutability": "nonpayable",
      "type": "function",
      "signature": "0x644241db"
    },
    {
      "constant": false,
      "inputs": [
        {
          "name": "account",
          "type": "address"
        }
      ],
      "name": "addDistributor",
      "outputs": [],
      "payable": false,
      "stateMutability": "nonpayable",
      "type": "function",
      "signature": "0x7250e224"
    },
    {
      "constant": false,
      "inputs": [
        {
          "name": "account",
          "type": "address"
        }
      ],
      "name": "addFarmer",
      "outputs": [],
      "payable": false,
      "stateMutability": "nonpayable",
      "type": "function",
      "signature": "0x80c3f96d"
    },
    {
      "constant": false,
      "inputs": [],
      "name": "renounceFarmer",
      "outputs": [],
      "payable": false,
      "stateMutability": "nonpayable",
      "type": "function",
      "signature": "0x80fc0ce4"
    },
    {
      "constant": true,
      "inputs": [
        {
          "name": "account",
          "type": "address"
        }
      ],
      "name": "isConsumer",
      "outputs": [
        {
          "name": "",
          "type": "bool"
        }
      ],
      "payable": false,
      "stateMutability": "view",
      "type": "function",
      "signature": "0x834ff739"
    },
    {
      "constant": false,
      "inputs": [
        {
          "name": "account",
          "type": "address"
        }
      ],
      "name": "addRetailer",
      "outputs": [],
      "payable": false,
      "stateMutability": "nonpayable",
      "type": "function",
      "signature": "0x8ec4f505"
    },
    {
      "constant": true,
      "inputs": [
        {
          "name": "account",
          "type": "address"
        }
      ],
      "name": "isDistributor",
      "outputs": [
        {
          "name": "",
          "type": "bool"
        }
      ],
      "payable": false,
      "stateMutability": "view",
      "type": "function",
      "signature": "0x8f0c86fa"
    },
    {
      "constant": true,
      "inputs": [
        {
          "name": "account",
          "type": "address"
        }
      ],
      "name": "isCooperative",
      "outputs": [
        {
          "name": "",
          "type": "bool"
        }
      ],
      "payable": false,
      "stateMutability": "view",
      "type": "function",
      "signature": "0xa3fac137"
    },
    {
      "constant": true,
      "inputs": [
        {
          "name": "account",
          "type": "address"
        }
      ],
      "name": "isFarmer",
      "outputs": [
        {
          "name": "",
          "type": "bool"
        }
      ],
      "payable": false,
      "stateMutability": "view",
      "type": "function",
      "signature": "0xb9429069"
    },
    {
      "constant": false,
      "inputs": [],
      "name": "renounceRetailer",
      "outputs": [],
      "payable": false,
      "stateMutability": "nonpayable",
      "type": "function",
      "signature": "0xdb0e6a2f"
    },
    {
      "constant": false,
      "inputs": [],
      "name": "renounceCooperative",
      "outputs": [],
      "payable": false,
      "stateMutability": "nonpayable",
      "type": "function",
      "signature": "0xeb34ce8c"
    },
    {
      "constant": false,
      "inputs": [
        {
          "name": "account",
          "type": "address"
        }
      ],
      "name": "addCooperative",
      "outputs": [],
      "payable": false,
      "stateMutability": "nonpayable",
      "type": "function",
      "signature": "0xebeab3f9"
    },
    {
      "inputs": [],
      "payable": true,
      "stateMutability": "payable",
      "type": "constructor",
      "signature": "constructor"
    },
    {
      "anonymous": false,
      "inputs": [
        {
          "indexed": false,
          "name": "upc",
          "type": "uint256"
        }
      ],
      "name": "Harvested",
      "type": "event",
      "signature": "0x8e55ccfc9778ff8eba1646d765cf1982537ce0f9257054a17b48aad745250183"
    },
    {
      "anonymous": false,
      "inputs": [
        {
          "indexed": false,
          "name": "upc",
          "type": "uint256"
        },
        {
          "indexed": false,
          "name": "cooperative",
          "type": "address"
        }
      ],
      "name": "GrappesShipped",
      "type": "event",
      "signature": "0xf4159b4f73b8c23626f19f8bc04d7e074c3d93ddc12f8b174e50d3acdb021187"
    },
    {
      "anonymous": false,
      "inputs": [
        {
          "indexed": false,
          "name": "upc",
          "type": "uint256"
        }
      ],
      "name": "Processed",
      "type": "event",
      "signature": "0x5afe3b1bf87069693c075da5c22a98d63d1aef98a30dbbe538d0781a98b77ee5"
    },
    {
      "anonymous": false,
      "inputs": [
        {
          "indexed": false,
          "name": "upc",
          "type": "uint256"
        }
      ],
      "name": "Aged",
      "type": "event",
      "signature": "0xfa795f995e12c074777bab440425afc98477f6cfceceba5ca50feae5089e59ce"
    },
    {
      "anonymous": false,
      "inputs": [
        {
          "indexed": false,
          "name": "upc",
          "type": "uint256"
        }
      ],
      "name": "Bottled",
      "type": "event",
      "signature": "0x8aff1823bf9f30e2f7eacb17de47cc2917592a34188a0b47c0c228c82c38fc54"
    },
    {
      "anonymous": false,
      "inputs": [
        {
          "indexed": false,
          "name": "upc",
          "type": "uint256"
        }
      ],
      "name": "Boxed",
      "type": "event",
      "signature": "0xe70f42326e85c2ed7f23dfdb2408f440dc9abcb0a9bc37b6e26803ed4690254a"
    },
    {
      "anonymous": false,
      "inputs": [
        {
          "indexed": false,
          "name": "upc",
          "type": "uint256"
        }
      ],
      "name": "ForSale",
      "type": "event",
      "signature": "0xa96ae0fc3224ebd79eebfe54bd130cc9cb94416cddd1f2386115e00b72532468"
    },
    {
      "anonymous": false,
      "inputs": [
        {
          "indexed": false,
          "name": "upc",
          "type": "uint256"
        }
      ],
      "name": "Sold",
      "type": "event",
      "signature": "0x92f64ca637d023f354075a4be751b169c1a8a9ccb6d33cdd0cb3520543995727"
    },
    {
      "anonymous": false,
      "inputs": [
        {
          "indexed": false,
          "name": "upc",
          "type": "uint256"
        }
      ],
      "name": "Shipped",
      "type": "event",
      "signature": "0xf00b9a5725b80c54016f42114f6ed7792d22eecb116011c4afac29c57bef6c95"
    },
    {
      "anonymous": false,
      "inputs": [
        {
          "indexed": false,
          "name": "upc",
          "type": "uint256"
        }
      ],
      "name": "Received",
      "type": "event",
      "signature": "0xa8142743f8f70a4c26f3691cf4ed59718381fb2f18070ec52be1f1022d855557"
    },
    {
      "anonymous": false,
      "inputs": [
        {
          "indexed": false,
          "name": "upc",
          "type": "uint256"
        }
      ],
      "name": "Purchased",
      "type": "event",
      "signature": "0x653d56639fee6b566a5c804764e9689de38645f0b733df89a36a1b7b42173dd8"
    },
    {
      "anonymous": false,
      "inputs": [
        {
          "indexed": true,
          "name": "account",
          "type": "address"
        }
      ],
      "name": "ConsumerAdded",
      "type": "event",
      "signature": "0x28b26e7a3d20aedbc5f8f2ebf7da671c0491723a2b78f47a097b0e46dee07142"
    },
    {
      "anonymous": false,
      "inputs": [
        {
          "indexed": true,
          "name": "account",
          "type": "address"
        }
      ],
      "name": "ConsumerRemoved",
      "type": "event",
      "signature": "0xe3f5ed5f263f1f01764a96edfc7d025f511ec5f7d180e8816908b78bcf74f098"
    },
    {
      "anonymous": false,
      "inputs": [
        {
          "indexed": true,
          "name": "account",
          "type": "address"
        }
      ],
      "name": "RetailerAdded",
      "type": "event",
      "signature": "0x71ae26cad02663e3d92efd6ec56031a80d74a20c0ab4183faa8bf262261c9baa"
    },
    {
      "anonymous": false,
      "inputs": [
        {
          "indexed": true,
          "name": "account",
          "type": "address"
        }
      ],
      "name": "RetailerRemoved",
      "type": "event",
      "signature": "0xdb7176e79cffef81cb01767dd0447a0b24bb72ca9778d4b245581086b2a7e6db"
    },
    {
      "anonymous": false,
      "inputs": [
        {
          "indexed": true,
          "name": "account",
          "type": "address"
        }
      ],
      "name": "DistributorAdded",
      "type": "event",
      "signature": "0xddbf200aa634dc3fb81cfd68583dd1040d1c751d335e1d86b631bde3e977fea8"
    },
    {
      "anonymous": false,
      "inputs": [
        {
          "indexed": true,
          "name": "account",
          "type": "address"
        }
      ],
      "name": "DistributorRemoved",
      "type": "event",
      "signature": "0x126174f6cf49c81cdb4a9214c6b8f037bef55b4ec31e4fc776cea2a1c8a88d59"
    },
    {
      "anonymous": false,
      "inputs": [
        {
          "indexed": true,
          "name": "account",
          "type": "address"
        }
      ],
      "name": "CooperativeAdded",
      "type": "event",
      "signature": "0x579ad2dcd69a75f5a0fe24102090ff11fdcb275fb63aaa7c529bb4d256cd3e1e"
    },
    {
      "anonymous": false,
      "inputs": [
        {
          "indexed": true,
          "name": "account",
          "type": "address"
        }
      ],
      "name": "CooperativeRemoved",
      "type": "event",
      "signature": "0x09fe829558b6a955c7a2f9663311fb4100ff2614b140d4bd4ac01764b5a2f6c9"
    },
    {
      "anonymous": false,
      "inputs": [
        {
          "indexed": true,
          "name": "account",
          "type": "address"
        }
      ],
      "name": "FarmerAdded",
      "type": "event",
      "signature": "0x2e0ded4123377a3c2bc9a26f1717655a129e2f20752924d42e730ec89c83dbd0"
    },
    {
      "anonymous": false,
      "inputs": [
        {
          "indexed": true,
          "name": "account",
          "type": "address"
        }
      ],
      "name": "FarmerRemoved",
      "type": "event",
      "signature": "0xa5e0f060af304ab17dd418c7927e3da3ae7868189bf387aee09ab179ccc572f2"
    },
    {
      "constant": false,
      "inputs": [],
      "name": "kill",
      "outputs": [],
      "payable": false,
      "stateMutability": "nonpayable",
      "type": "function",
      "signature": "0x41c0e1b5"
    },
    {
      "constant": false,
      "inputs": [
        {
          "name": "_upc",
          "type": "uint256"
        },
        {
          "name": "_originFarmerID",
          "type": "address"
        },
        {
          "name": "_originFarmName",
          "type": "string"
        },
        {
          "name": "_originFarmInformation",
          "type": "string"
        },
        {
          "name": "_originFarmLatitude",
          "type": "string"
        },
        {
          "name": "_originFarmLongitude",
          "type": "string"
        },
        {
          "name": "_productNotes",
          "type": "string"
        }
      ],
      "name": "harvestItem",
      "outputs": [],
      "payable": false,
      "stateMutability": "nonpayable",
      "type": "function",
      "signature": "0xbdd8a6a8"
    },
    {
      "constant": false,
      "inputs": [
        {
          "name": "_upc",
          "type": "uint256"
        },
        {
          "name": "cooperative",
          "type": "address"
        }
      ],
      "name": "shipGrappesItem",
      "outputs": [],
      "payable": false,
      "stateMutability": "nonpayable",
      "type": "function",
      "signature": "0x24c966aa"
    },
    {
      "constant": false,
      "inputs": [
        {
          "name": "_upc",
          "type": "uint256"
        }
      ],
      "name": "processItem",
      "outputs": [],
      "payable": false,
      "stateMutability": "nonpayable",
      "type": "function",
      "signature": "0x49dae766"
    },
    {
      "constant": false,
      "inputs": [
        {
          "name": "_upc",
          "type": "uint256"
        }
      ],
      "name": "ageItem",
      "outputs": [],
      "payable": false,
      "stateMutability": "nonpayable",
      "type": "function",
      "signature": "0x3c59ed15"
    },
    {
      "constant": false,
      "inputs": [
        {
          "name": "_upc",
          "type": "uint256"
        }
      ],
      "name": "bottleItem",
      "outputs": [],
      "payable": false,
      "stateMutability": "nonpayable",
      "type": "function",
      "signature": "0xb585a6b1"
    },
    {
      "constant": false,
      "inputs": [
        {
          "name": "_upc",
          "type": "uint256"
        }
      ],
      "name": "boxItem",
      "outputs": [],
      "payable": false,
      "stateMutability": "nonpayable",
      "type": "function",
      "signature": "0x1c7842aa"
    },
    {
      "constant": false,
      "inputs": [
        {
          "name": "_upc",
          "type": "uint256"
        },
        {
          "name": "price",
          "type": "uint256"
        }
      ],
      "name": "putForSaleItem",
      "outputs": [],
      "payable": false,
      "stateMutability": "nonpayable",
      "type": "function",
      "signature": "0x11120f65"
    },
    {
      "constant": false,
      "inputs": [
        {
          "name": "_upc",
          "type": "uint256"
        }
      ],
      "name": "buyItem",
      "outputs": [],
      "payable": true,
      "stateMutability": "payable",
      "type": "function",
      "signature": "0xe7fb74c7"
    },
    {
      "constant": false,
      "inputs": [
        {
          "name": "_upc",
          "type": "uint256"
        },
        {
          "name": "retailer",
          "type": "address"
        }
      ],
      "name": "shipItem",
      "outputs": [],
      "payable": false,
      "stateMutability": "nonpayable",
      "type": "function",
      "signature": "0xbb4f288d"
    },
    {
      "constant": false,
      "inputs": [
        {
          "name": "_upc",
          "type": "uint256"
        },
        {
          "name": "_price",
          "type": "uint256"
        }
      ],
      "name": "receiveItem",
      "outputs": [],
      "payable": false,
      "stateMutability": "nonpayable",
      "type": "function",
      "signature": "0xb50f60e7"
    },
    {
      "constant": false,
      "inputs": [
        {
          "name": "_upc",
          "type": "uint256"
        }
      ],
      "name": "purchaseItem",
      "outputs": [],
      "payable": true,
      "stateMutability": "payable",
      "type": "function",
      "signature": "0xd38ea5bf"
    },
    {
      "constant": false,
      "inputs": [
        {
          "name": "_upc",
          "type": "uint256"
        },
        {
          "name": "_txHash",
          "type": "string"
        }
      ],
      "name": "addToHistory",
      "outputs": [],
      "payable": false,
      "stateMutability": "nonpayable",
      "type": "function",
      "signature": "0x7e723286"
    },
    {
      "constant": true,
      "inputs": [
        {
          "name": "_upc",
          "type": "uint256"
        }
      ],
      "name": "returnHistoryOne",
      "outputs": [
        {
          "name": "",
          "type": "string"
        },
        {
          "name": "",
          "type": "string"
        },
        {
          "name": "",
          "type": "string"
        },
        {
          "name": "",
          "type": "string"
        },
        {
          "name": "",
          "type": "string"
        },
        {
          "name": "",
          "type": "string"
        }
      ],
      "payable": false,
      "stateMutability": "view",
      "type": "function",
      "signature": "0x75cf624b"
    },
    {
      "constant": true,
      "inputs": [
        {
          "name": "_upc",
          "type": "uint256"
        }
      ],
      "name": "returnHistoryTwo",
      "outputs": [
        {
          "name": "",
          "type": "string"
        },
        {
          "name": "",
          "type": "string"
        },
        {
          "name": "",
          "type": "string"
        },
        {
          "name": "",
          "type": "string"
        },
        {
          "name": "",
          "type": "string"
        }
      ],
      "payable": false,
      "stateMutability": "view",
      "type": "function",
      "signature": "0x16dc7cad"
    },
    {
      "constant": true,
      "inputs": [
        {
          "name": "_upc",
          "type": "uint256"
        }
      ],
      "name": "fetchItemBufferOne",
      "outputs": [
        {
          "name": "itemSKU",
          "type": "uint256"
        },
        {
          "name": "itemUPC",
          "type": "uint256"
        },
        {
          "name": "ownerID",
          "type": "address"
        },
        {
          "name": "originFarmerID",
          "type": "address"
        },
        {
          "name": "originFarmName",
          "type": "string"
        },
        {
          "name": "originFarmInformation",
          "type": "string"
        },
        {
          "name": "originFarmLatitude",
          "type": "string"
        },
        {
          "name": "originFarmLongitude",
          "type": "string"
        }
      ],
      "payable": false,
      "stateMutability": "view",
      "type": "function",
      "signature": "0x77c45913"
    },
    {
      "constant": true,
      "inputs": [
        {
          "name": "_upc",
          "type": "uint256"
        }
      ],
      "name": "fetchItemBufferTwo",
      "outputs": [
        {
          "name": "itemSKU",
          "type": "uint256"
        },
        {
          "name": "itemUPC",
          "type": "uint256"
        },
        {
          "name": "productID",
          "type": "uint256"
        },
        {
          "name": "productNotes",
          "type": "string"
        },
        {
          "name": "productPrice",
          "type": "uint256"
        },
        {
          "name": "itemState",
          "type": "uint256"
        },
        {
          "name": "cooperativeID",
          "type": "address"
        },
        {
          "name": "distributorID",
          "type": "address"
        },
        {
          "name": "retailerID",
          "type": "address"
        },
        {
          "name": "consumerID",
          "type": "address"
        }
      ],
      "payable": false,
      "stateMutability": "view",
      "type": "function",
      "signature": "0x66225ff9"
    }
  ],
  "bytecode": "0x60806040526200001e33620000dd640100000000026401000000009004565b620000383362000147640100000000026401000000009004565b6200005233620001b1640100000000026401000000009004565b6200006c336200021b640100000000026401000000009004565b620000863362000285640100000000026401000000009004565b33600560006101000a81548173ffffffffffffffffffffffffffffffffffffffff021916908373ffffffffffffffffffffffffffffffffffffffff1602179055506001600781905550600160068190555062000447565b62000101816000620002ef64010000000002620045b0179091906401000000009004565b8073ffffffffffffffffffffffffffffffffffffffff167f2e0ded4123377a3c2bc9a26f1717655a129e2f20752924d42e730ec89c83dbd060405160405180910390a250565b6200016b816001620002ef64010000000002620045b0179091906401000000009004565b8073ffffffffffffffffffffffffffffffffffffffff167f579ad2dcd69a75f5a0fe24102090ff11fdcb275fb63aaa7c529bb4d256cd3e1e60405160405180910390a250565b620001d5816002620002ef64010000000002620045b0179091906401000000009004565b8073ffffffffffffffffffffffffffffffffffffffff167fddbf200aa634dc3fb81cfd68583dd1040d1c751d335e1d86b631bde3e977fea860405160405180910390a250565b6200023f816003620002ef64010000000002620045b0179091906401000000009004565b8073ffffffffffffffffffffffffffffffffffffffff167f71ae26cad02663e3d92efd6ec56031a80d74a20c0ab4183faa8bf262261c9baa60405160405180910390a250565b620002a9816004620002ef64010000000002620045b0179091906401000000009004565b8073ffffffffffffffffffffffffffffffffffffffff167f28b26e7a3d20aedbc5f8f2ebf7da671c0491723a2b78f47a097b0e46dee0714260405160405180910390a250565b600073ffffffffffffffffffffffffffffffffffffffff168173ffffffffffffffffffffffffffffffffffffffff16141515156200032c57600080fd5b620003478282620003b2640100000000026401000000009004565b1515156200035457600080fd5b60018260000160008373ffffffffffffffffffffffffffffffffffffffff1673ffffffffffffffffffffffffffffffffffffffff16815260200190815260200160002060006101000a81548160ff0219169083151502179055505050565b60008073ffffffffffffffffffffffffffffffffffffffff168273ffffffffffffffffffffffffffffffffffffffff1614151515620003f057600080fd5b8260000160008373ffffffffffffffffffffffffffffffffffffffff1673ffffffffffffffffffffffffffffffffffffffff16815260200190815260200160002060009054906101000a900460ff16905092915050565b61496d80620004576000396000f3fe608060405260043610610196576000357c0100000000000000000000000000000000000000000000000000000000900463ffffffff16806311120f651461019b578063112940f9146101e057806316dc7cad146102315780631c7842aa1461049557806324c966aa146104d05780633c59ed151461052b57806341c0e1b51461056657806349dae7661461057d5780635da09b88146105b857806361e6982d14610621578063644241db1461063857806366225ff91461064f5780637250e224146107f257806375cf624b1461084357806377c4591314610b135780637e72328614610d7f57806380c3f96d14610e5157806380fc0ce414610ea2578063834ff73914610eb95780638ec4f50514610f225780638f0c86fa14610f73578063a3fac13714610fdc578063b50f60e714611045578063b585a6b11461108a578063b9429069146110c5578063bb4f288d1461112e578063bdd8a6a814611189578063d38ea5bf146114d7578063db0e6a2f14611505578063e7fb74c71461151c578063eb34ce8c1461154a578063ebeab3f914611561575b600080fd5b3480156101a757600080fd5b506101de600480360360408110156101be57600080fd5b8101908080359060200190929190803590602001909291905050506115b2565b005b3480156101ec57600080fd5b5061022f6004803603602081101561020357600080fd5b81019080803573ffffffffffffffffffffffffffffffffffffffff16906020019092919050505061170a565b005b34801561023d57600080fd5b5061026a6004803603602081101561025457600080fd5b810190808035906020019092919050505061172a565b60405180806020018060200180602001806020018060200186810386528b818151815260200191508051906020019080838360005b838110156102ba57808201518184015260208101905061029f565b50505050905090810190601f1680156102e75780820380516001836020036101000a031916815260200191505b5086810385528a818151815260200191508051906020019080838360005b83811015610320578082015181840152602081019050610305565b50505050905090810190601f16801561034d5780820380516001836020036101000a031916815260200191505b50868103845289818151815260200191508051906020019080838360005b8381101561038657808201518184015260208101905061036b565b50505050905090810190601f1680156103b35780820380516001836020036101000a031916815260200191505b50868103835288818151815260200191508051906020019080838360005b838110156103ec5780820151818401526020810190506103d1565b50505050905090810190601f1680156104195780820380516001836020036101000a031916815260200191505b50868103825287818151815260200191508051906020019080838360005b83811015610452578082015181840152602081019050610437565b50505050905090810190601f16801561047f5780820380516001836020036101000a031916815260200191505b509a505050505050505050505060405180910390f35b3480156104a157600080fd5b506104ce600480360360208110156104b857600080fd5b8101908080359060200190929190505050611ae6565b005b3480156104dc57600080fd5b50610529600480360360408110156104f357600080fd5b8101908080359060200190929190803573ffffffffffffffffffffffffffffffffffffffff169060200190929190505050611c34565b005b34801561053757600080fd5b506105646004803603602081101561054e57600080fd5b8101908080359060200190929190505050611e3d565b005b34801561057257600080fd5b5061057b611f8b565b005b34801561058957600080fd5b506105b6600480360360208110156105a057600080fd5b810190808035906020019092919050505061201e565b005b3480156105c457600080fd5b50610607600480360360208110156105db57600080fd5b81019080803573ffffffffffffffffffffffffffffffffffffffff16906020019092919050505061216c565b604051808215151515815260200191505060405180910390f35b34801561062d57600080fd5b50610636612189565b005b34801561064457600080fd5b5061064d612194565b005b34801561065b57600080fd5b506106886004803603602081101561067257600080fd5b810190808035906020019092919050505061219f565b604051808b81526020018a8152602001898152602001806020018881526020018781526020018673ffffffffffffffffffffffffffffffffffffffff1673ffffffffffffffffffffffffffffffffffffffff1681526020018573ffffffffffffffffffffffffffffffffffffffff1673ffffffffffffffffffffffffffffffffffffffff1681526020018473ffffffffffffffffffffffffffffffffffffffff1673ffffffffffffffffffffffffffffffffffffffff1681526020018373ffffffffffffffffffffffffffffffffffffffff1673ffffffffffffffffffffffffffffffffffffffff168152602001828103825289818151815260200191508051906020019080838360005b838110156107ae578082015181840152602081019050610793565b50505050905090810190601f1680156107db5780820380516001836020036101000a031916815260200191505b509b50505050505050505050505060405180910390f35b3480156107fe57600080fd5b506108416004803603602081101561081557600080fd5b81019080803573ffffffffffffffffffffffffffffffffffffffff1690602001909291905050506127d2565b005b34801561084f57600080fd5b5061087c6004803603602081101561086657600080fd5b81019080803590602001909291905050506127f2565b6040518080602001806020018060200180602001806020018060200187810387528d818151815260200191508051906020019080838360005b838110156108d05780820151818401526020810190506108b5565b50505050905090810190601f1680156108fd5780820380516001836020036101000a031916815260200191505b5087810386528c818151815260200191508051906020019080838360005b8381101561093657808201518184015260208101905061091b565b50505050905090810190601f1680156109635780820380516001836020036101000a031916815260200191505b5087810385528b818151815260200191508051906020019080838360005b8381101561099c578082015181840152602081019050610981565b50505050905090810190601f1680156109c95780820380516001836020036101000a031916815260200191505b5087810384528a818151815260200191508051906020019080838360005b83811015610a025780820151818401526020810190506109e7565b50505050905090810190601f168015610a2f5780820380516001836020036101000a031916815260200191505b50878103835289818151815260200191508051906020019080838360005b83811015610a68578082015181840152602081019050610a4d565b50505050905090810190601f168015610a955780820380516001836020036101000a031916815260200191505b50878103825288818151815260200191508051906020019080838360005b83811015610ace578082015181840152602081019050610ab3565b50505050905090810190601f168015610afb5780820380516001836020036101000a031916815260200191505b509c5050505050505050505050505060405180910390f35b348015610b1f57600080fd5b50610b4c60048036036020811015610b3657600080fd5b8101908080359060200190929190505050612c66565b604051808981526020018881526020018773ffffffffffffffffffffffffffffffffffffffff1673ffffffffffffffffffffffffffffffffffffffff1681526020018673ffffffffffffffffffffffffffffffffffffffff1673ffffffffffffffffffffffffffffffffffffffff16815260200180602001806020018060200180602001858103855289818151815260200191508051906020019080838360005b83811015610c08578082015181840152602081019050610bed565b50505050905090810190601f168015610c355780820380516001836020036101000a031916815260200191505b50858103845288818151815260200191508051906020019080838360005b83811015610c6e578082015181840152602081019050610c53565b50505050905090810190601f168015610c9b5780820380516001836020036101000a031916815260200191505b50858103835287818151815260200191508051906020019080838360005b83811015610cd4578082015181840152602081019050610cb9565b50505050905090810190601f168015610d015780820380516001836020036101000a031916815260200191505b50858103825286818151815260200191508051906020019080838360005b83811015610d3a578082015181840152602081019050610d1f565b50505050905090810190601f168015610d675780820380516001836020036101000a031916815260200191505b509c5050505050505050505050505060405180910390f35b348015610d8b57600080fd5b50610e4f60048036036040811015610da257600080fd5b810190808035906020019092919080359060200190640100000000811115610dc957600080fd5b820183602082011115610ddb57600080fd5b80359060200191846001830284011164010000000083111715610dfd57600080fd5b91908080601f016020809104026020016040519081016040528093929190818152602001838380828437600081840152601f19601f82011690508083019250505050505050919291929050505061326f565b005b348015610e5d57600080fd5b50610ea060048036036020811015610e7457600080fd5b81019080803573ffffffffffffffffffffffffffffffffffffffff169060200190929190505050613325565b005b348015610eae57600080fd5b50610eb7613345565b005b348015610ec557600080fd5b50610f0860048036036020811015610edc57600080fd5b81019080803573ffffffffffffffffffffffffffffffffffffffff169060200190929190505050613350565b604051808215151515815260200191505060405180910390f35b348015610f2e57600080fd5b50610f7160048036036020811015610f4557600080fd5b81019080803573ffffffffffffffffffffffffffffffffffffffff16906020019092919050505061336d565b005b348015610f7f57600080fd5b50610fc260048036036020811015610f9657600080fd5b81019080803573ffffffffffffffffffffffffffffffffffffffff16906020019092919050505061338d565b604051808215151515815260200191505060405180910390f35b348015610fe857600080fd5b5061102b60048036036020811015610fff57600080fd5b81019080803573ffffffffffffffffffffffffffffffffffffffff1690602001909291905050506133aa565b604051808215151515815260200191505060405180910390f35b34801561105157600080fd5b506110886004803603604081101561106857600080fd5b8101908080359060200190929190803590602001909291905050506133c7565b005b34801561109657600080fd5b506110c3600480360360208110156110ad57600080fd5b810190808035906020019092919050505061351f565b005b3480156110d157600080fd5b50611114600480360360208110156110e857600080fd5b81019080803573ffffffffffffffffffffffffffffffffffffffff16906020019092919050505061366d565b604051808215151515815260200191505060405180910390f35b34801561113a57600080fd5b506111876004803603604081101561115157600080fd5b8101908080359060200190929190803573ffffffffffffffffffffffffffffffffffffffff16906020019092919050505061368a565b005b34801561119557600080fd5b506114d5600480360360e08110156111ac57600080fd5b8101908080359060200190929190803573ffffffffffffffffffffffffffffffffffffffff169060200190929190803590602001906401000000008111156111f357600080fd5b82018360208201111561120557600080fd5b8035906020019184600183028401116401000000008311171561122757600080fd5b91908080601f016020809104026020016040519081016040528093929190818152602001838380828437600081840152601f19601f8201169050808301925050505050505091929192908035906020019064010000000081111561128a57600080fd5b82018360208201111561129c57600080fd5b803590602001918460018302840111640100000000831117156112be57600080fd5b91908080601f016020809104026020016040519081016040528093929190818152602001838380828437600081840152601f19601f8201169050808301925050505050505091929192908035906020019064010000000081111561132157600080fd5b82018360208201111561133357600080fd5b8035906020019184600183028401116401000000008311171561135557600080fd5b91908080601f016020809104026020016040519081016040528093929190818152602001838380828437600081840152601f19601f820116905080830192505050505050509192919290803590602001906401000000008111156113b857600080fd5b8201836020820111156113ca57600080fd5b803590602001918460018302840111640100000000831117156113ec57600080fd5b91908080601f016020809104026020016040519081016040528093929190818152602001838380828437600081840152601f19601f8201169050808301925050505050505091929192908035906020019064010000000081111561144f57600080fd5b82018360208201111561146157600080fd5b8035906020019184600183028401116401000000008311171561148357600080fd5b91908080601f016020809104026020016040519081016040528093929190818152602001838380828437600081840152601f19601f820116905080830192505050505050509192919290505050613875565b005b611503600480360360208110156114ed57600080fd5b8101908080359060200190929190505050613c98565b005b34801561151157600080fd5b5061151a613efd565b005b6115486004803603602081101561153257600080fd5b8101908080359060200190929190505050613f08565b005b34801561155657600080fd5b5061155f61416d565b005b34801561156d57600080fd5b506115b06004803603602081101561158457600080fd5b81019080803573ffffffffffffffffffffffffffffffffffffffff169060200190929190505050614178565b005b816005600a8111156115c057fe5b60086000838152602001908152602001600020600b0160009054906101000a900460ff16600a8111156115ef57fe5b1415156115fb57600080fd5b8260006008600083815260200190815260200160002090508060020160009054906101000a900473ffffffffffffffffffffffffffffffffffffffff1673ffffffffffffffffffffffffffffffffffffffff163373ffffffffffffffffffffffffffffffffffffffff1614151561167157600080fd5b61167a336133aa565b151561168557600080fd5b6000600860008781526020019081526020016000209050600681600b0160006101000a81548160ff0219169083600a8111156116bd57fe5b02179055508481600a01819055507fa96ae0fc3224ebd79eebfe54bd130cc9cb94416cddd1f2386115e00b72532468866040518082815260200191505060405180910390a1505050505050565b61171333613350565b151561171e57600080fd5b61172781614198565b50565b6060806060806060600060096000888152602001908152602001600020905080600681548110151561175857fe5b9060005260206000200181600781548110151561177157fe5b9060005260206000200182600881548110151561178a57fe5b906000526020600020018360098154811015156117a357fe5b9060005260206000200184600a8154811015156117bc57fe5b90600052602060002001848054600181600116156101000203166002900480601f01602080910402602001604051908101604052809291908181526020018280546001816001161561010002031660029004801561185b5780601f106118305761010080835404028352916020019161185b565b820191906000526020600020905b81548152906001019060200180831161183e57829003601f168201915b50505050509450838054600181600116156101000203166002900480601f0160208091040260200160405190810160405280929190818152602001828054600181600116156101000203166002900480156118f75780601f106118cc576101008083540402835291602001916118f7565b820191906000526020600020905b8154815290600101906020018083116118da57829003601f168201915b50505050509350828054600181600116156101000203166002900480601f0160208091040260200160405190810160405280929190818152602001828054600181600116156101000203166002900480156119935780601f1061196857610100808354040283529160200191611993565b820191906000526020600020905b81548152906001019060200180831161197657829003601f168201915b50505050509250818054600181600116156101000203166002900480601f016020809104026020016040519081016040528092919081815260200182805460018160011615610100020316600290048015611a2f5780601f10611a0457610100808354040283529160200191611a2f565b820191906000526020600020905b815481529060010190602001808311611a1257829003601f168201915b50505050509150808054600181600116156101000203166002900480601f016020809104026020016040519081016040528092919081815260200182805460018160011615610100020316600290048015611acb5780601f10611aa057610100808354040283529160200191611acb565b820191906000526020600020905b815481529060010190602001808311611aae57829003601f168201915b50505050509050955095509550955095505091939590929450565b806004600a811115611af457fe5b60086000838152602001908152602001600020600b0160009054906101000a900460ff16600a811115611b2357fe5b141515611b2f57600080fd5b8160006008600083815260200190815260200160002090508060020160009054906101000a900473ffffffffffffffffffffffffffffffffffffffff1673ffffffffffffffffffffffffffffffffffffffff163373ffffffffffffffffffffffffffffffffffffffff16141515611ba557600080fd5b611bae336133aa565b1515611bb957600080fd5b6000600860008681526020019081526020016000209050600581600b0160006101000a81548160ff0219169083600a811115611bf157fe5b02179055507fe70f42326e85c2ed7f23dfdb2408f440dc9abcb0a9bc37b6e26803ed4690254a856040518082815260200191505060405180910390a15050505050565b816000600a811115611c4257fe5b60086000838152602001908152602001600020600b0160009054906101000a900460ff16600a811115611c7157fe5b141515611c7d57600080fd5b8260006008600083815260200190815260200160002090508060020160009054906101000a900473ffffffffffffffffffffffffffffffffffffffff1673ffffffffffffffffffffffffffffffffffffffff163373ffffffffffffffffffffffffffffffffffffffff16141515611cf357600080fd5b611cfc3361366d565b1515611d0757600080fd5b6000600860008781526020019081526020016000209050600181600b0160006101000a81548160ff0219169083600a811115611d3f57fe5b0217905550848160020160006101000a81548173ffffffffffffffffffffffffffffffffffffffff021916908373ffffffffffffffffffffffffffffffffffffffff1602179055508481600b0160016101000a81548173ffffffffffffffffffffffffffffffffffffffff021916908373ffffffffffffffffffffffffffffffffffffffff1602179055507ff4159b4f73b8c23626f19f8bc04d7e074c3d93ddc12f8b174e50d3acdb0211878686604051808381526020018273ffffffffffffffffffffffffffffffffffffffff1673ffffffffffffffffffffffffffffffffffffffff1681526020019250505060405180910390a1505050505050565b806002600a811115611e4b57fe5b60086000838152602001908152602001600020600b0160009054906101000a900460ff16600a811115611e7a57fe5b141515611e8657600080fd5b8160006008600083815260200190815260200160002090508060020160009054906101000a900473ffffffffffffffffffffffffffffffffffffffff1673ffffffffffffffffffffffffffffffffffffffff163373ffffffffffffffffffffffffffffffffffffffff16141515611efc57600080fd5b611f05336133aa565b1515611f1057600080fd5b6000600860008681526020019081526020016000209050600381600b0160006101000a81548160ff0219169083600a811115611f4857fe5b02179055507ffa795f995e12c074777bab440425afc98477f6cfceceba5ca50feae5089e59ce856040518082815260200191505060405180910390a15050505050565b600560009054906101000a900473ffffffffffffffffffffffffffffffffffffffff1673ffffffffffffffffffffffffffffffffffffffff163373ffffffffffffffffffffffffffffffffffffffff16141561201c57600560009054906101000a900473ffffffffffffffffffffffffffffffffffffffff1673ffffffffffffffffffffffffffffffffffffffff16ff5b565b806001600a81111561202c57fe5b60086000838152602001908152602001600020600b0160009054906101000a900460ff16600a81111561205b57fe5b14151561206757600080fd5b8160006008600083815260200190815260200160002090508060020160009054906101000a900473ffffffffffffffffffffffffffffffffffffffff1673ffffffffffffffffffffffffffffffffffffffff163373ffffffffffffffffffffffffffffffffffffffff161415156120dd57600080fd5b6120e6336133aa565b15156120f157600080fd5b6000600860008681526020019081526020016000209050600281600b0160006101000a81548160ff0219169083600a81111561212957fe5b02179055507f5afe3b1bf87069693c075da5c22a98d63d1aef98a30dbbe538d0781a98b77ee5856040518082815260200191505060405180910390a15050505050565b60006121828260036141f290919063ffffffff16565b9050919050565b61219233614286565b565b61219d336142e0565b565b600080600060606000806000806000806121b761470f565b600860008d8152602001908152602001600020610200604051908101604052908160008201548152602001600182015481526020016002820160009054906101000a900473ffffffffffffffffffffffffffffffffffffffff1673ffffffffffffffffffffffffffffffffffffffff1673ffffffffffffffffffffffffffffffffffffffff1681526020016003820160009054906101000a900473ffffffffffffffffffffffffffffffffffffffff1673ffffffffffffffffffffffffffffffffffffffff1673ffffffffffffffffffffffffffffffffffffffff168152602001600482018054600181600116156101000203166002900480601f0160208091040260200160405190810160405280929190818152602001828054600181600116156101000203166002900480156123305780601f1061230557610100808354040283529160200191612330565b820191906000526020600020905b81548152906001019060200180831161231357829003601f168201915b50505050508152602001600582018054600181600116156101000203166002900480601f0160208091040260200160405190810160405280929190818152602001828054600181600116156101000203166002900480156123d25780601f106123a7576101008083540402835291602001916123d2565b820191906000526020600020905b8154815290600101906020018083116123b557829003601f168201915b50505050508152602001600682018054600181600116156101000203166002900480601f0160208091040260200160405190810160405280929190818152602001828054600181600116156101000203166002900480156124745780601f1061244957610100808354040283529160200191612474565b820191906000526020600020905b81548152906001019060200180831161245757829003601f168201915b50505050508152602001600782018054600181600116156101000203166002900480601f0160208091040260200160405190810160405280929190818152602001828054600181600116156101000203166002900480156125165780601f106124eb57610100808354040283529160200191612516565b820191906000526020600020905b8154815290600101906020018083116124f957829003601f168201915b5050505050815260200160088201548152602001600982018054600181600116156101000203166002900480601f0160208091040260200160405190810160405280929190818152602001828054600181600116156101000203166002900480156125c25780601f10612597576101008083540402835291602001916125c2565b820191906000526020600020905b8154815290600101906020018083116125a557829003601f168201915b50505050508152602001600a8201548152602001600b820160009054906101000a900460ff16600a8111156125f357fe5b600a8111156125fe57fe5b8152602001600b820160019054906101000a900473ffffffffffffffffffffffffffffffffffffffff1673ffffffffffffffffffffffffffffffffffffffff1673ffffffffffffffffffffffffffffffffffffffff168152602001600c820160009054906101000a900473ffffffffffffffffffffffffffffffffffffffff1673ffffffffffffffffffffffffffffffffffffffff1673ffffffffffffffffffffffffffffffffffffffff168152602001600d820160009054906101000a900473ffffffffffffffffffffffffffffffffffffffff1673ffffffffffffffffffffffffffffffffffffffff1673ffffffffffffffffffffffffffffffffffffffff168152602001600e820160009054906101000a900473ffffffffffffffffffffffffffffffffffffffff1673ffffffffffffffffffffffffffffffffffffffff1673ffffffffffffffffffffffffffffffffffffffff1681525050905080600001518160200151826101000151836101200151846101400151856101600151600a81111561278957fe5b866101800151876101a00151886101c00151896101e001518696508393508292508191508090509a509a509a509a509a509a509a509a509a509a50509193959799509193959799565b6127db3361338d565b15156127e657600080fd5b6127ef8161433a565b50565b606080606080606080600060096000898152602001908152602001600020905080600081548110151561282157fe5b9060005260206000200181600181548110151561283a57fe5b9060005260206000200182600281548110151561285357fe5b9060005260206000200183600381548110151561286c57fe5b9060005260206000200184600481548110151561288557fe5b9060005260206000200185600581548110151561289e57fe5b90600052602060002001858054600181600116156101000203166002900480601f01602080910402602001604051908101604052809291908181526020018280546001816001161561010002031660029004801561293d5780601f106129125761010080835404028352916020019161293d565b820191906000526020600020905b81548152906001019060200180831161292057829003601f168201915b50505050509550848054600181600116156101000203166002900480601f0160208091040260200160405190810160405280929190818152602001828054600181600116156101000203166002900480156129d95780601f106129ae576101008083540402835291602001916129d9565b820191906000526020600020905b8154815290600101906020018083116129bc57829003601f168201915b50505050509450838054600181600116156101000203166002900480601f016020809104026020016040519081016040528092919081815260200182805460018160011615610100020316600290048015612a755780601f10612a4a57610100808354040283529160200191612a75565b820191906000526020600020905b815481529060010190602001808311612a5857829003601f168201915b50505050509350828054600181600116156101000203166002900480601f016020809104026020016040519081016040528092919081815260200182805460018160011615610100020316600290048015612b115780601f10612ae657610100808354040283529160200191612b11565b820191906000526020600020905b815481529060010190602001808311612af457829003601f168201915b50505050509250818054600181600116156101000203166002900480601f016020809104026020016040519081016040528092919081815260200182805460018160011615610100020316600290048015612bad5780601f10612b8257610100808354040283529160200191612bad565b820191906000526020600020905b815481529060010190602001808311612b9057829003601f168201915b50505050509150808054600181600116156101000203166002900480601f016020809104026020016040519081016040528092919081815260200182805460018160011615610100020316600290048015612c495780601f10612c1e57610100808354040283529160200191612c49565b820191906000526020600020905b815481529060010190602001808311612c2c57829003601f168201915b505050505090509650965096509650965096505091939550919395565b600080600080606080606080612c7a61470f565b600860008b8152602001908152602001600020610200604051908101604052908160008201548152602001600182015481526020016002820160009054906101000a900473ffffffffffffffffffffffffffffffffffffffff1673ffffffffffffffffffffffffffffffffffffffff1673ffffffffffffffffffffffffffffffffffffffff1681526020016003820160009054906101000a900473ffffffffffffffffffffffffffffffffffffffff1673ffffffffffffffffffffffffffffffffffffffff1673ffffffffffffffffffffffffffffffffffffffff168152602001600482018054600181600116156101000203166002900480601f016020809104026020016040519081016040528092919081815260200182805460018160011615610100020316600290048015612df35780601f10612dc857610100808354040283529160200191612df3565b820191906000526020600020905b815481529060010190602001808311612dd657829003601f168201915b50505050508152602001600582018054600181600116156101000203166002900480601f016020809104026020016040519081016040528092919081815260200182805460018160011615610100020316600290048015612e955780601f10612e6a57610100808354040283529160200191612e95565b820191906000526020600020905b815481529060010190602001808311612e7857829003601f168201915b50505050508152602001600682018054600181600116156101000203166002900480601f016020809104026020016040519081016040528092919081815260200182805460018160011615610100020316600290048015612f375780601f10612f0c57610100808354040283529160200191612f37565b820191906000526020600020905b815481529060010190602001808311612f1a57829003601f168201915b50505050508152602001600782018054600181600116156101000203166002900480601f016020809104026020016040519081016040528092919081815260200182805460018160011615610100020316600290048015612fd95780601f10612fae57610100808354040283529160200191612fd9565b820191906000526020600020905b815481529060010190602001808311612fbc57829003601f168201915b5050505050815260200160088201548152602001600982018054600181600116156101000203166002900480601f0160208091040260200160405190810160405280929190818152602001828054600181600116156101000203166002900480156130855780601f1061305a57610100808354040283529160200191613085565b820191906000526020600020905b81548152906001019060200180831161306857829003601f168201915b50505050508152602001600a8201548152602001600b820160009054906101000a900460ff16600a8111156130b657fe5b600a8111156130c157fe5b8152602001600b820160019054906101000a900473ffffffffffffffffffffffffffffffffffffffff1673ffffffffffffffffffffffffffffffffffffffff1673ffffffffffffffffffffffffffffffffffffffff168152602001600c820160009054906101000a900473ffffffffffffffffffffffffffffffffffffffff1673ffffffffffffffffffffffffffffffffffffffff1673ffffffffffffffffffffffffffffffffffffffff168152602001600d820160009054906101000a900473ffffffffffffffffffffffffffffffffffffffff1673ffffffffffffffffffffffffffffffffffffffff1673ffffffffffffffffffffffffffffffffffffffff168152602001600e820160009054906101000a900473ffffffffffffffffffffffffffffffffffffffff1673ffffffffffffffffffffffffffffffffffffffff1673ffffffffffffffffffffffffffffffffffffffff16815250509050806000015181602001518260400151836060015184608001518560a001518660c001518760e001518393508292508191508090509850985098509850985098509850985050919395975091939597565b600560009054906101000a900473ffffffffffffffffffffffffffffffffffffffff1673ffffffffffffffffffffffffffffffffffffffff163373ffffffffffffffffffffffffffffffffffffffff161415156132cb57600080fd5b60006009600084815260200190815260200160002090508082908060018154018082558091505090600182039060005260206000200160009091929091909150908051906020019061331e92919061481c565b5050505050565b61332e3361366d565b151561333957600080fd5b61334281614394565b50565b61334e336143ee565b565b60006133668260046141f290919063ffffffff16565b9050919050565b6133763361216c565b151561338157600080fd5b61338a81614448565b50565b60006133a38260026141f290919063ffffffff16565b9050919050565b60006133c08260016141f290919063ffffffff16565b9050919050565b816008600a8111156133d557fe5b60086000838152602001908152602001600020600b0160009054906101000a900460ff16600a81111561340457fe5b14151561341057600080fd5b8260006008600083815260200190815260200160002090508060020160009054906101000a900473ffffffffffffffffffffffffffffffffffffffff1673ffffffffffffffffffffffffffffffffffffffff163373ffffffffffffffffffffffffffffffffffffffff1614151561348657600080fd5b61348f3361216c565b151561349a57600080fd5b6000600860008781526020019081526020016000209050600981600b0160006101000a81548160ff0219169083600a8111156134d257fe5b02179055508481600a01819055507fa8142743f8f70a4c26f3691cf4ed59718381fb2f18070ec52be1f1022d855557866040518082815260200191505060405180910390a1505050505050565b806003600a81111561352d57fe5b60086000838152602001908152602001600020600b0160009054906101000a900460ff16600a81111561355c57fe5b14151561356857600080fd5b8160006008600083815260200190815260200160002090508060020160009054906101000a900473ffffffffffffffffffffffffffffffffffffffff1673ffffffffffffffffffffffffffffffffffffffff163373ffffffffffffffffffffffffffffffffffffffff161415156135de57600080fd5b6135e7336133aa565b15156135f257600080fd5b6000600860008681526020019081526020016000209050600481600b0160006101000a81548160ff0219169083600a81111561362a57fe5b02179055507f8aff1823bf9f30e2f7eacb17de47cc2917592a34188a0b47c0c228c82c38fc54856040518082815260200191505060405180910390a15050505050565b60006136838260006141f290919063ffffffff16565b9050919050565b816007600a81111561369857fe5b60086000838152602001908152602001600020600b0160009054906101000a900460ff16600a8111156136c757fe5b1415156136d357600080fd5b8260006008600083815260200190815260200160002090508060020160009054906101000a900473ffffffffffffffffffffffffffffffffffffffff1673ffffffffffffffffffffffffffffffffffffffff163373ffffffffffffffffffffffffffffffffffffffff1614151561374957600080fd5b836137538161216c565b151561375e57600080fd5b6137673361338d565b151561377257600080fd5b6000600860008881526020019081526020016000209050600881600b0160006101000a81548160ff0219169083600a8111156137aa57fe5b0217905550858160020160006101000a81548173ffffffffffffffffffffffffffffffffffffffff021916908373ffffffffffffffffffffffffffffffffffffffff1602179055508581600d0160006101000a81548173ffffffffffffffffffffffffffffffffffffffff021916908373ffffffffffffffffffffffffffffffffffffffff1602179055507ff00b9a5725b80c54016f42114f6ed7792d22eecb116011c4afac29c57bef6c95876040518082815260200191505060405180910390a150505050505050565b61387e3361366d565b151561388957600080fd5b61389161470f565b6102006040519081016040528060075481526020018981526020018873ffffffffffffffffffffffffffffffffffffffff1681526020018873ffffffffffffffffffffffffffffffffffffffff16815260200187815260200186815260200185815260200184815260200189600754018152602001838152602001600081526020016000600a81111561392057fe5b8152602001600073ffffffffffffffffffffffffffffffffffffffff168152602001600073ffffffffffffffffffffffffffffffffffffffff168152602001600073ffffffffffffffffffffffffffffffffffffffff168152602001600073ffffffffffffffffffffffffffffffffffffffff16815250905080600860008a8152602001908152602001600020600082015181600001556020820151816001015560408201518160020160006101000a81548173ffffffffffffffffffffffffffffffffffffffff021916908373ffffffffffffffffffffffffffffffffffffffff16021790555060608201518160030160006101000a81548173ffffffffffffffffffffffffffffffffffffffff021916908373ffffffffffffffffffffffffffffffffffffffff1602179055506080820151816004019080519060200190613a6b92919061489c565b5060a0820151816005019080519060200190613a8892919061489c565b5060c0820151816006019080519060200190613aa592919061489c565b5060e0820151816007019080519060200190613ac292919061489c565b506101008201518160080155610120820151816009019080519060200190613aeb92919061489c565b5061014082015181600a015561016082015181600b0160006101000a81548160ff0219169083600a811115613b1c57fe5b021790555061018082015181600b0160016101000a81548173ffffffffffffffffffffffffffffffffffffffff021916908373ffffffffffffffffffffffffffffffffffffffff1602179055506101a082015181600c0160006101000a81548173ffffffffffffffffffffffffffffffffffffffff021916908373ffffffffffffffffffffffffffffffffffffffff1602179055506101c082015181600d0160006101000a81548173ffffffffffffffffffffffffffffffffffffffff021916908373ffffffffffffffffffffffffffffffffffffffff1602179055506101e082015181600e0160006101000a81548173ffffffffffffffffffffffffffffffffffffffff021916908373ffffffffffffffffffffffffffffffffffffffff160217905550905050600160075401600781905550876006819055507f8e55ccfc9778ff8eba1646d765cf1982537ce0f9257054a17b48aad745250183886040518082815260200191505060405180910390a15050505050505050565b806009600a811115613ca657fe5b60086000838152602001908152602001600020600b0160009054906101000a900460ff16600a811115613cd557fe5b141515613ce157600080fd5b81600060086000838152602001908152602001600020905080600a01543410151515613d0c57600080fd5b613d1533613350565b1515613d2057600080fd5b836000600860008781526020019081526020016000209050600a81600b0160006101000a81548160ff0219169083600a811115613d5957fe5b0217905550338160020160006101000a81548173ffffffffffffffffffffffffffffffffffffffff021916908373ffffffffffffffffffffffffffffffffffffffff1602179055503381600e0160006101000a81548173ffffffffffffffffffffffffffffffffffffffff021916908373ffffffffffffffffffffffffffffffffffffffff16021790555080600d0160009054906101000a900473ffffffffffffffffffffffffffffffffffffffff1673ffffffffffffffffffffffffffffffffffffffff166108fc82600a01549081150290604051600060405180830381858888f19350505050158015613e52573d6000803e3d6000fd5b507f653d56639fee6b566a5c804764e9689de38645f0b733df89a36a1b7b42173dd8866040518082815260200191505060405180910390a150600060086000838152602001908152602001600020600a01549050600081340390503373ffffffffffffffffffffffffffffffffffffffff166108fc829081150290604051600060405180830381858888f19350505050158015613ef3573d6000803e3d6000fd5b5050505050505050565b613f06336144a2565b565b806006600a811115613f1657fe5b60086000838152602001908152602001600020600b0160009054906101000a900460ff16600a811115613f4557fe5b141515613f5157600080fd5b81600060086000838152602001908152602001600020905080600a01543410151515613f7c57600080fd5b613f853361338d565b1515613f9057600080fd5b836000600860008781526020019081526020016000209050600781600b0160006101000a81548160ff0219169083600a811115613fc957fe5b0217905550338160020160006101000a81548173ffffffffffffffffffffffffffffffffffffffff021916908373ffffffffffffffffffffffffffffffffffffffff1602179055503381600c0160006101000a81548173ffffffffffffffffffffffffffffffffffffffff021916908373ffffffffffffffffffffffffffffffffffffffff16021790555080600b0160019054906101000a900473ffffffffffffffffffffffffffffffffffffffff1673ffffffffffffffffffffffffffffffffffffffff166108fc82600a01549081150290604051600060405180830381858888f193505050501580156140c2573d6000803e3d6000fd5b507f92f64ca637d023f354075a4be751b169c1a8a9ccb6d33cdd0cb3520543995727866040518082815260200191505060405180910390a150600060086000838152602001908152602001600020600a01549050600081340390503373ffffffffffffffffffffffffffffffffffffffff166108fc829081150290604051600060405180830381858888f19350505050158015614163573d6000803e3d6000fd5b5050505050505050565b614176336144fc565b565b614181336133aa565b151561418c57600080fd5b61419581614556565b50565b6141ac8160046145b090919063ffffffff16565b8073ffffffffffffffffffffffffffffffffffffffff167f28b26e7a3d20aedbc5f8f2ebf7da671c0491723a2b78f47a097b0e46dee0714260405160405180910390a250565b60008073ffffffffffffffffffffffffffffffffffffffff168273ffffffffffffffffffffffffffffffffffffffff161415151561422f57600080fd5b8260000160008373ffffffffffffffffffffffffffffffffffffffff1673ffffffffffffffffffffffffffffffffffffffff16815260200190815260200160002060009054906101000a900460ff16905092915050565b61429a81600461466090919063ffffffff16565b8073ffffffffffffffffffffffffffffffffffffffff167fe3f5ed5f263f1f01764a96edfc7d025f511ec5f7d180e8816908b78bcf74f09860405160405180910390a250565b6142f481600261466090919063ffffffff16565b8073ffffffffffffffffffffffffffffffffffffffff167f126174f6cf49c81cdb4a9214c6b8f037bef55b4ec31e4fc776cea2a1c8a88d5960405160405180910390a250565b61434e8160026145b090919063ffffffff16565b8073ffffffffffffffffffffffffffffffffffffffff167fddbf200aa634dc3fb81cfd68583dd1040d1c751d335e1d86b631bde3e977fea860405160405180910390a250565b6143a88160006145b090919063ffffffff16565b8073ffffffffffffffffffffffffffffffffffffffff167f2e0ded4123377a3c2bc9a26f1717655a129e2f20752924d42e730ec89c83dbd060405160405180910390a250565b61440281600061466090919063ffffffff16565b8073ffffffffffffffffffffffffffffffffffffffff167fa5e0f060af304ab17dd418c7927e3da3ae7868189bf387aee09ab179ccc572f260405160405180910390a250565b61445c8160036145b090919063ffffffff16565b8073ffffffffffffffffffffffffffffffffffffffff167f71ae26cad02663e3d92efd6ec56031a80d74a20c0ab4183faa8bf262261c9baa60405160405180910390a250565b6144b681600361466090919063ffffffff16565b8073ffffffffffffffffffffffffffffffffffffffff167fdb7176e79cffef81cb01767dd0447a0b24bb72ca9778d4b245581086b2a7e6db60405160405180910390a250565b61451081600161466090919063ffffffff16565b8073ffffffffffffffffffffffffffffffffffffffff167f09fe829558b6a955c7a2f9663311fb4100ff2614b140d4bd4ac01764b5a2f6c960405160405180910390a250565b61456a8160016145b090919063ffffffff16565b8073ffffffffffffffffffffffffffffffffffffffff167f579ad2dcd69a75f5a0fe24102090ff11fdcb275fb63aaa7c529bb4d256cd3e1e60405160405180910390a250565b600073ffffffffffffffffffffffffffffffffffffffff168173ffffffffffffffffffffffffffffffffffffffff16141515156145ec57600080fd5b6145f682826141f2565b15151561460257600080fd5b60018260000160008373ffffffffffffffffffffffffffffffffffffffff1673ffffffffffffffffffffffffffffffffffffffff16815260200190815260200160002060006101000a81548160ff0219169083151502179055505050565b600073ffffffffffffffffffffffffffffffffffffffff168173ffffffffffffffffffffffffffffffffffffffff161415151561469c57600080fd5b6146a682826141f2565b15156146b157600080fd5b60008260000160008373ffffffffffffffffffffffffffffffffffffffff1673ffffffffffffffffffffffffffffffffffffffff16815260200190815260200160002060006101000a81548160ff0219169083151502179055505050565b610200604051908101604052806000815260200160008152602001600073ffffffffffffffffffffffffffffffffffffffff168152602001600073ffffffffffffffffffffffffffffffffffffffff168152602001606081526020016060815260200160608152602001606081526020016000815260200160608152602001600081526020016000600a8111156147a257fe5b8152602001600073ffffffffffffffffffffffffffffffffffffffff168152602001600073ffffffffffffffffffffffffffffffffffffffff168152602001600073ffffffffffffffffffffffffffffffffffffffff168152602001600073ffffffffffffffffffffffffffffffffffffffff1681525090565b828054600181600116156101000203166002900490600052602060002090601f016020900481019282601f1061485d57805160ff191683800117855561488b565b8280016001018555821561488b579182015b8281111561488a57825182559160200191906001019061486f565b5b509050614898919061491c565b5090565b828054600181600116156101000203166002900490600052602060002090601f016020900481019282601f106148dd57805160ff191683800117855561490b565b8280016001018555821561490b579182015b8281111561490a5782518255916020019190600101906148ef565b5b509050614918919061491c565b5090565b61493e91905b8082111561493a576000816000905550600101614922565b5090565b9056fea165627a7a723058208f551662649b94468b88834ec077c79b428f3f9de4be1d7d9e020ec9fc03ff2e0029",
  "source": "pragma solidity >=0.4.21 <0.6.0;\n\nimport '../roles/FarmerRole.sol';\nimport '../roles/CooperativeRole.sol';\nimport '../roles/DistributorRole.sol';\nimport '../roles/RetailerRole.sol';\nimport '../roles/ConsumerRole.sol';\n\n// Define a contract 'Supplychain'\ncontract SupplyChain is FarmerRole, CooperativeRole, DistributorRole, RetailerRole, ConsumerRole {\n\n    // Define 'owner'\n    address payable owner;\n\n    // Define a variable called 'upc' for Universal Product Code (UPC)\n    uint  upc;\n\n    // Define a variable called 'sku' for Stock Keeping Unit (SKU)\n    uint sku;\n\n    // Define a public mapping 'items' that maps the UPC to an Item.\n    mapping(uint => Item) items;\n\n    // Define a public mapping 'itemsHistory' that maps the UPC to an array of TxHash,\n    // that track its journey through the supply chain -- to be sent from DApp.\n    mapping(uint => string[]) itemsHistory;\n\n    // Define enum 'State' with the following values:\n    enum State\n    {\n        Harvested, // 0\n        GrappesShipped, // 1\n        Processed, // 2\n        Aged, // 3\n        Bottled, // 4\n        Boxed, // 5\n        ForSale, // 6\n        Sold, // 7\n        Shipped, // 8\n        Received, // 9\n        Purchased // 10\n    }\n\n    State constant defaultState = State.Harvested;\n\n    // Define a struct 'Item' with the following fields:\n    struct Item {\n        uint sku;  // Stock Keeping Unit (SKU)\n        uint upc; // Universal Product Code (UPC), generated by the Farmer, goes on the package, can be verified by the Consumer\n        address ownerID;  // Metamask-Ethereum address of the current owner as the product moves through 8 stages\n        address originFarmerID; // Metamask-Ethereum address of the Farmer\n        string originFarmName; // Farmer Name\n        string originFarmInformation;  // Farmer Information\n        string originFarmLatitude; // Farm Latitude\n        string originFarmLongitude;  // Farm Longitude\n        uint productID;  // Product ID potentially a combination of upc + sku\n        string productNotes; // Product Notes\n        uint productPrice; // Product Price\n        State itemState;  // Product State as represented in the enum above\n        address payable cooperativeID; // Metamask-Ethereum address of the Cooperative\n        address payable distributorID;  // Metamask-Ethereum address of the Distributor\n        address payable retailerID; // Metamask-Ethereum address of the Retailer\n        address payable consumerID; // Metamask-Ethereum address of the Consumer\n    }\n\n    // Define 8 events with the same 8 state values and accept 'upc' as input argument\n    event Harvested(uint upc);\n    event GrappesShipped(uint upc, address cooperative);\n    event Processed(uint upc);\n    event Aged(uint upc);\n    event Bottled(uint upc);\n    event Boxed(uint upc);\n    event ForSale(uint upc);\n    event Sold(uint upc);\n    event Shipped(uint upc);\n    event Received(uint upc);\n    event Purchased(uint upc);\n\n    // Define a modifer that checks to see if msg.sender == owner of the contract\n    modifier onlyOwner() {\n        require(msg.sender == owner);\n        _;\n    }\n\n    modifier onlyItemOwner(uint _upc) {\n        Item storage item = items[_upc];\n        require(msg.sender == item.ownerID);\n        _;\n    }\n\n    // Define a modifer that verifies the Caller\n    modifier verifyCaller (address _address) {\n        require(msg.sender == _address);\n        _;\n    }\n\n    // Define a modifier that checks if the paid amount is sufficient to cover the price\n    modifier paidEnough(uint _upc) {\n        Item storage item = items[_upc];\n        require(msg.value >= item.productPrice);\n        _;\n    }\n\n    // Define a modifier that checks the price and refunds the remaining balance\n    modifier checkValue(uint _upc) {\n        _;\n        uint _price = items[_upc].productPrice;\n        uint amountToReturn = msg.value - _price;\n        msg.sender.transfer(amountToReturn);\n    }\n\n    // Define a modifier that checks if an item.state of a upc is Harvested\n    modifier harvested(uint _upc) {\n        require(items[_upc].itemState == State.Harvested);\n        _;\n    }\n\n    // Define a modifier that checks if an item.state of a upc is GrappesShipped\n    modifier grappesShipped(uint _upc) {\n        require(items[_upc].itemState == State.GrappesShipped);\n        _;\n    }\n\n    // Define a modifier that checks if an item.state of a upc is Processed\n    modifier processed(uint _upc) {\n        require(items[_upc].itemState == State.Processed);\n        _;\n    }\n\n    // Define a modifier that checks if an item.state of a upc is Aged\n    modifier aged(uint _upc) {\n        require(items[_upc].itemState == State.Aged);\n        _;\n    }\n\n    // Define a modifier that checks if an item.state of a upc is Bottled\n    modifier bottled(uint _upc) {\n        require(items[_upc].itemState == State.Bottled);\n        _;\n    }\n\n    // Define a modifier that checks if an item.state of a upc is Boxed\n    modifier boxed(uint _upc) {\n        require(items[_upc].itemState == State.Boxed);\n        _;\n    }\n\n    // Define a modifier that checks if an item.state of a upc is ForSale\n    modifier forSale(uint _upc) {\n        require(items[_upc].itemState == State.ForSale);\n        _;\n    }\n\n    // Define a modifier that checks if an item.state of a upc is Sold\n    modifier sold(uint _upc) {\n        require(items[_upc].itemState == State.Sold);\n        _;\n    }\n\n    // Define a mgodifier that checks if an item.state of a upc is Shipped\n    modifier shipped(uint _upc) {\n        require(items[_upc].itemState == State.Shipped);\n        _;\n    }\n\n    // Define a modifier that checks if an item.state of a upc is Received\n    modifier received(uint _upc) {\n        require(items[_upc].itemState == State.Received);\n        _;\n    }\n\n    // Define a modifierc that checks if an item.state of a upc is Purchased\n    modifier purchased(uint _upc) {\n        require(items[_upc].itemState == State.Purchased);\n        _;\n    }\n\n    // In the constructor set 'owner' to the address that instantiated the contract\n    // and set 'sku' to 1\n    // and set 'upc' to 1\n    constructor() public payable {\n        owner = msg.sender;\n        sku = 1;\n        upc = 1;\n    }\n\n    // Define a function 'kill' if required\n    function kill() public {\n        if (msg.sender == owner) {\n            selfdestruct(owner);\n        }\n    }\n\n    // Define a function 'harvestItem' that allows a farmer to mark an item 'Harvested'\n    function harvestItem(uint _upc, address _originFarmerID, string memory _originFarmName, string memory _originFarmInformation, string memory _originFarmLatitude, string memory _originFarmLongitude, string memory _productNotes) onlyFarmer public\n    {\n        // Add the new item as part of paidEnoughHarvest\n        Item memory item = Item({\n            sku : sku,\n            upc : _upc,\n            ownerID : _originFarmerID,\n            originFarmerID : _originFarmerID,\n            originFarmName : _originFarmName,\n            originFarmInformation : _originFarmInformation,\n            originFarmLatitude : _originFarmLatitude,\n            originFarmLongitude : _originFarmLongitude,\n            productPrice : 0,\n            productID : sku + _upc,\n            productNotes : _productNotes,\n            itemState : defaultState,\n            cooperativeID : address(0),\n            distributorID : address(0),\n            retailerID : address(0),\n            consumerID : address(0)\n            });\n\n        items[_upc] = item;\n\n        // Increment sku\n        sku = sku + 1;\n\n        // Set upc to match _upc\n        upc = _upc;\n\n        // Emit the appropriate event\n        emit Harvested(_upc);\n    }\n\n    function shipGrappesItem(uint _upc, address payable cooperative) harvested(_upc) onlyItemOwner(_upc) onlyFarmer public {\n        // Update the appropriate fields\n        Item storage item = items[_upc];\n        item.itemState = State.GrappesShipped;\n        item.ownerID = cooperative;\n        item.cooperativeID = cooperative;\n\n        // Emit the appropriate event\n        emit GrappesShipped(_upc, cooperative);\n    }\n\n    // Define a function 'processtItem' that allows a cooperative to mark an item 'Processed'\n    function processItem(uint _upc) grappesShipped(_upc) onlyItemOwner(_upc) onlyCooperative public {\n        // Update the appropriate fields\n        Item storage item = items[_upc];\n        item.itemState = State.Processed;\n\n        // Emit the appropriate event\n        emit Processed(_upc);\n    }\n\n    // Define a function 'ageItem' that allows a cooperative to mark an item 'Aged'\n    function ageItem(uint _upc) processed(_upc) onlyItemOwner(_upc) onlyCooperative public {\n        // Update the appropriate fields\n        Item storage item = items[_upc];\n        item.itemState = State.Aged;\n\n        // Emit the appropriate event\n        emit Aged(_upc);\n    }\n\n    function bottleItem(uint _upc) aged(_upc) onlyItemOwner(_upc) onlyCooperative public {\n        Item storage item = items[_upc];\n        item.itemState = State.Bottled;\n        emit Bottled(_upc);\n    }\n\n    //    // Define a function 'boxItem' that allows a cooperative to mark an item 'Boxed'\n    function boxItem(uint _upc) bottled(_upc) onlyItemOwner(_upc) onlyCooperative public {\n        // Update the appropriate fields\n        Item storage item = items[_upc];\n        item.itemState = State.Boxed;\n\n        // Emit the appropriate event\n        emit Boxed(_upc);\n    }\n\n    //    // Define a function 'putForSaleiItem' that allows a cooperative to mark an item 'ForSale'\n    function putForSaleItem(uint _upc, uint price) boxed(_upc) onlyItemOwner(_upc) onlyCooperative public {\n        // Update the appropriate fields\n        Item storage item = items[_upc];\n        item.itemState = State.ForSale;\n        item.productPrice = price;\n\n        // Emit the appropriate event\n        emit ForSale(_upc);\n    }\n\n    function buyItem(uint _upc) forSale(_upc) paidEnough(_upc) onlyDistributor checkValue(_upc) public payable {\n        // Update the appropriate fields\n        Item storage item = items[_upc];\n        item.itemState = State.Sold;\n        item.ownerID = msg.sender;\n        item.distributorID = msg.sender;\n\n        // transfer money to cooperative\n        item.cooperativeID.transfer(item.productPrice);\n\n        // Emit the appropriate event\n        emit Sold(_upc);\n    }\n\n    function shipItem(uint _upc, address payable retailer) sold(_upc) onlyItemOwner(_upc) verifiedRetailer(retailer) onlyDistributor public {\n        // Update the appropriate fields\n        Item storage item = items[_upc];\n        item.itemState = State.Shipped;\n        item.ownerID = retailer;\n        item.retailerID = retailer;\n\n        // Emit the appropriate event\n        emit Shipped(_upc);\n    }\n\n    function receiveItem(uint _upc, uint _price) shipped(_upc) onlyItemOwner(_upc) onlyRetailer public {\n        // Update the appropriate fields\n        Item storage item = items[_upc];\n        item.itemState = State.Received;\n        item.productPrice = _price;\n\n        // Emit the appropriate event\n        emit Received(_upc);\n    }\n\n    function purchaseItem(uint _upc) received(_upc) paidEnough(_upc) onlyConsumer checkValue(_upc) public payable {\n        // Update the appropriate fields\n        Item storage item = items[_upc];\n        item.itemState = State.Purchased;\n        item.ownerID = msg.sender;\n        item.consumerID = msg.sender;\n\n        // transfer money to cooperative\n        item.retailerID.transfer(item.productPrice);\n\n        // Emit the appropriate event\n        emit Purchased(_upc);\n    }\n\n    function addToHistory(uint _upc, string memory _txHash) public onlyOwner {\n        string[] storage history = itemsHistory[_upc];\n        history.push(_txHash);\n    }\n\n    function returnHistoryOne(uint _upc) public view returns (\n        string memory,\n        string memory,\n        string memory,\n        string memory,\n        string memory,\n        string memory\n    ) {\n        string[] storage history = itemsHistory[_upc];\n        return (\n        history[0],\n        history[1],\n        history[2],\n        history[3],\n        history[4],\n        history[5]\n        );\n    }\n\n    function returnHistoryTwo(uint _upc) public view returns (\n        string memory,\n        string memory,\n        string memory,\n        string memory,\n        string memory\n    ) {\n        string[] storage history = itemsHistory[_upc];\n        return (\n        history[6],\n        history[7],\n        history[8],\n        history[9],\n        history[10]\n        );\n    }\n\n    // Define a function 'fetchItemBuffproductPriceerOne' that fetches the data\n    function fetchItemBufferOne(uint _upc) public view returns\n    (\n        uint itemSKU,\n        uint itemUPC,\n        address ownerID,\n        address originFarmerID,\n        string memory originFarmName,\n        string memory originFarmInformation,\n        string memory originFarmLatitude,\n        string memory originFarmLongitude\n    )\n    {\n        // Assign values to the 8 parameters\n        Item memory item = items[_upc];\n\n        return\n        (\n        item.sku,\n        item.upc,\n        item.ownerID,\n        item.originFarmerID,\n        item.originFarmName,\n        item.originFarmInformation,\n        item.originFarmLatitude,\n        item.originFarmLongitude\n        );\n    }\n\n    // Define a function 'fetchItemBufferTwo' that fetches the data\n    function fetchItemBufferTwo(uint _upc) public view returns\n    (\n        uint itemSKU,\n        uint itemUPC,\n        uint productID,\n        string memory productNotes,\n        uint productPrice,\n        uint itemState,\n        address cooperativeID,\n        address distributorID,\n        address retailerID,\n        address consumerID\n    )\n    {\n        // Assign values to the 9 parameters\n        Item memory item = items[_upc];\n\n        return\n        (\n        item.sku,\n        item.upc,\n        item.productID,\n        item.productNotes,\n        item.productPrice,\n        uint(item.itemState),\n        item.cooperativeID,\n        item.distributorID,\n        item.retailerID,\n        item.consumerID\n        );\n    }\n}\n\n",
  "sourcePath": "/home/nmiguelmoura/Documents/projects/blockchain/wine-supply-chain/contracts/supply/SupplyChain.sol",
  "compiler": {
    "name": "solc",
    "version": "0.5.0+commit.1d4f565a.Emscripten.clang"
  },
  "schemaVersion": "3.0.0",
  "updatedAt": "2019-01-13T18:45:31.773Z",
  "devdoc": {
    "methods": {}
  },
  "userdoc": {
    "methods": {}
  }
}