{
  "contractName": "SupplyChain",
  "abi": [
    {
      "constant": false,
      "inputs": [
        {
          "name": "account",
          "type": "address"
        }
      ],
      "name": "addConsumer",
      "outputs": [],
      "payable": false,
      "stateMutability": "nonpayable",
      "type": "function",
      "signature": "0x112940f9"
    },
    {
      "constant": true,
      "inputs": [
        {
          "name": "account",
          "type": "address"
        }
      ],
      "name": "isRetailer",
      "outputs": [
        {
          "name": "",
          "type": "bool"
        }
      ],
      "payable": false,
      "stateMutability": "view",
      "type": "function",
      "signature": "0x5da09b88"
    },
    {
      "constant": false,
      "inputs": [],
      "name": "renounceConsumer",
      "outputs": [],
      "payable": false,
      "stateMutability": "nonpayable",
      "type": "function",
      "signature": "0x61e6982d"
    },
    {
      "constant": false,
      "inputs": [],
      "name": "renounceDistributor",
      "outputs": [],
      "payable": false,
      "stateMutability": "nonpayable",
      "type": "function",
      "signature": "0x644241db"
    },
    {
      "constant": false,
      "inputs": [
        {
          "name": "account",
          "type": "address"
        }
      ],
      "name": "addDistributor",
      "outputs": [],
      "payable": false,
      "stateMutability": "nonpayable",
      "type": "function",
      "signature": "0x7250e224"
    },
    {
      "constant": false,
      "inputs": [
        {
          "name": "account",
          "type": "address"
        }
      ],
      "name": "addFarmer",
      "outputs": [],
      "payable": false,
      "stateMutability": "nonpayable",
      "type": "function",
      "signature": "0x80c3f96d"
    },
    {
      "constant": false,
      "inputs": [],
      "name": "renounceFarmer",
      "outputs": [],
      "payable": false,
      "stateMutability": "nonpayable",
      "type": "function",
      "signature": "0x80fc0ce4"
    },
    {
      "constant": true,
      "inputs": [
        {
          "name": "account",
          "type": "address"
        }
      ],
      "name": "isConsumer",
      "outputs": [
        {
          "name": "",
          "type": "bool"
        }
      ],
      "payable": false,
      "stateMutability": "view",
      "type": "function",
      "signature": "0x834ff739"
    },
    {
      "constant": false,
      "inputs": [
        {
          "name": "account",
          "type": "address"
        }
      ],
      "name": "addRetailer",
      "outputs": [],
      "payable": false,
      "stateMutability": "nonpayable",
      "type": "function",
      "signature": "0x8ec4f505"
    },
    {
      "constant": true,
      "inputs": [
        {
          "name": "account",
          "type": "address"
        }
      ],
      "name": "isDistributor",
      "outputs": [
        {
          "name": "",
          "type": "bool"
        }
      ],
      "payable": false,
      "stateMutability": "view",
      "type": "function",
      "signature": "0x8f0c86fa"
    },
    {
      "constant": true,
      "inputs": [
        {
          "name": "account",
          "type": "address"
        }
      ],
      "name": "isCooperative",
      "outputs": [
        {
          "name": "",
          "type": "bool"
        }
      ],
      "payable": false,
      "stateMutability": "view",
      "type": "function",
      "signature": "0xa3fac137"
    },
    {
      "constant": true,
      "inputs": [
        {
          "name": "account",
          "type": "address"
        }
      ],
      "name": "isFarmer",
      "outputs": [
        {
          "name": "",
          "type": "bool"
        }
      ],
      "payable": false,
      "stateMutability": "view",
      "type": "function",
      "signature": "0xb9429069"
    },
    {
      "constant": false,
      "inputs": [],
      "name": "renounceRetailer",
      "outputs": [],
      "payable": false,
      "stateMutability": "nonpayable",
      "type": "function",
      "signature": "0xdb0e6a2f"
    },
    {
      "constant": false,
      "inputs": [],
      "name": "renounceCooperative",
      "outputs": [],
      "payable": false,
      "stateMutability": "nonpayable",
      "type": "function",
      "signature": "0xeb34ce8c"
    },
    {
      "constant": false,
      "inputs": [
        {
          "name": "account",
          "type": "address"
        }
      ],
      "name": "addCooperative",
      "outputs": [],
      "payable": false,
      "stateMutability": "nonpayable",
      "type": "function",
      "signature": "0xebeab3f9"
    },
    {
      "inputs": [],
      "payable": true,
      "stateMutability": "payable",
      "type": "constructor",
      "signature": "constructor"
    },
    {
      "anonymous": false,
      "inputs": [
        {
          "indexed": false,
          "name": "upc",
          "type": "uint256"
        }
      ],
      "name": "Harvested",
      "type": "event",
      "signature": "0x8e55ccfc9778ff8eba1646d765cf1982537ce0f9257054a17b48aad745250183"
    },
    {
      "anonymous": false,
      "inputs": [
        {
          "indexed": false,
          "name": "upc",
          "type": "uint256"
        },
        {
          "indexed": false,
          "name": "cooperative",
          "type": "address"
        }
      ],
      "name": "GrappesShipped",
      "type": "event",
      "signature": "0xf4159b4f73b8c23626f19f8bc04d7e074c3d93ddc12f8b174e50d3acdb021187"
    },
    {
      "anonymous": false,
      "inputs": [
        {
          "indexed": false,
          "name": "upc",
          "type": "uint256"
        }
      ],
      "name": "Processed",
      "type": "event",
      "signature": "0x5afe3b1bf87069693c075da5c22a98d63d1aef98a30dbbe538d0781a98b77ee5"
    },
    {
      "anonymous": false,
      "inputs": [
        {
          "indexed": false,
          "name": "upc",
          "type": "uint256"
        }
      ],
      "name": "Aged",
      "type": "event",
      "signature": "0xfa795f995e12c074777bab440425afc98477f6cfceceba5ca50feae5089e59ce"
    },
    {
      "anonymous": false,
      "inputs": [
        {
          "indexed": false,
          "name": "upc",
          "type": "uint256"
        }
      ],
      "name": "Bottled",
      "type": "event",
      "signature": "0x8aff1823bf9f30e2f7eacb17de47cc2917592a34188a0b47c0c228c82c38fc54"
    },
    {
      "anonymous": false,
      "inputs": [
        {
          "indexed": false,
          "name": "upc",
          "type": "uint256"
        }
      ],
      "name": "Boxed",
      "type": "event",
      "signature": "0xe70f42326e85c2ed7f23dfdb2408f440dc9abcb0a9bc37b6e26803ed4690254a"
    },
    {
      "anonymous": false,
      "inputs": [
        {
          "indexed": false,
          "name": "upc",
          "type": "uint256"
        }
      ],
      "name": "ForSale",
      "type": "event",
      "signature": "0xa96ae0fc3224ebd79eebfe54bd130cc9cb94416cddd1f2386115e00b72532468"
    },
    {
      "anonymous": false,
      "inputs": [
        {
          "indexed": false,
          "name": "upc",
          "type": "uint256"
        }
      ],
      "name": "Sold",
      "type": "event",
      "signature": "0x92f64ca637d023f354075a4be751b169c1a8a9ccb6d33cdd0cb3520543995727"
    },
    {
      "anonymous": false,
      "inputs": [
        {
          "indexed": false,
          "name": "upc",
          "type": "uint256"
        }
      ],
      "name": "Shipped",
      "type": "event",
      "signature": "0xf00b9a5725b80c54016f42114f6ed7792d22eecb116011c4afac29c57bef6c95"
    },
    {
      "anonymous": false,
      "inputs": [
        {
          "indexed": false,
          "name": "upc",
          "type": "uint256"
        }
      ],
      "name": "Received",
      "type": "event",
      "signature": "0xa8142743f8f70a4c26f3691cf4ed59718381fb2f18070ec52be1f1022d855557"
    },
    {
      "anonymous": false,
      "inputs": [
        {
          "indexed": false,
          "name": "upc",
          "type": "uint256"
        }
      ],
      "name": "Purchased",
      "type": "event",
      "signature": "0x653d56639fee6b566a5c804764e9689de38645f0b733df89a36a1b7b42173dd8"
    },
    {
      "anonymous": false,
      "inputs": [
        {
          "indexed": true,
          "name": "account",
          "type": "address"
        }
      ],
      "name": "ConsumerAdded",
      "type": "event",
      "signature": "0x28b26e7a3d20aedbc5f8f2ebf7da671c0491723a2b78f47a097b0e46dee07142"
    },
    {
      "anonymous": false,
      "inputs": [
        {
          "indexed": true,
          "name": "account",
          "type": "address"
        }
      ],
      "name": "ConsumerRemoved",
      "type": "event",
      "signature": "0xe3f5ed5f263f1f01764a96edfc7d025f511ec5f7d180e8816908b78bcf74f098"
    },
    {
      "anonymous": false,
      "inputs": [
        {
          "indexed": true,
          "name": "account",
          "type": "address"
        }
      ],
      "name": "RetailerAdded",
      "type": "event",
      "signature": "0x71ae26cad02663e3d92efd6ec56031a80d74a20c0ab4183faa8bf262261c9baa"
    },
    {
      "anonymous": false,
      "inputs": [
        {
          "indexed": true,
          "name": "account",
          "type": "address"
        }
      ],
      "name": "RetailerRemoved",
      "type": "event",
      "signature": "0xdb7176e79cffef81cb01767dd0447a0b24bb72ca9778d4b245581086b2a7e6db"
    },
    {
      "anonymous": false,
      "inputs": [
        {
          "indexed": true,
          "name": "account",
          "type": "address"
        }
      ],
      "name": "DistributorAdded",
      "type": "event",
      "signature": "0xddbf200aa634dc3fb81cfd68583dd1040d1c751d335e1d86b631bde3e977fea8"
    },
    {
      "anonymous": false,
      "inputs": [
        {
          "indexed": true,
          "name": "account",
          "type": "address"
        }
      ],
      "name": "DistributorRemoved",
      "type": "event",
      "signature": "0x126174f6cf49c81cdb4a9214c6b8f037bef55b4ec31e4fc776cea2a1c8a88d59"
    },
    {
      "anonymous": false,
      "inputs": [
        {
          "indexed": true,
          "name": "account",
          "type": "address"
        }
      ],
      "name": "CooperativeAdded",
      "type": "event",
      "signature": "0x579ad2dcd69a75f5a0fe24102090ff11fdcb275fb63aaa7c529bb4d256cd3e1e"
    },
    {
      "anonymous": false,
      "inputs": [
        {
          "indexed": true,
          "name": "account",
          "type": "address"
        }
      ],
      "name": "CooperativeRemoved",
      "type": "event",
      "signature": "0x09fe829558b6a955c7a2f9663311fb4100ff2614b140d4bd4ac01764b5a2f6c9"
    },
    {
      "anonymous": false,
      "inputs": [
        {
          "indexed": true,
          "name": "account",
          "type": "address"
        }
      ],
      "name": "FarmerAdded",
      "type": "event",
      "signature": "0x2e0ded4123377a3c2bc9a26f1717655a129e2f20752924d42e730ec89c83dbd0"
    },
    {
      "anonymous": false,
      "inputs": [
        {
          "indexed": true,
          "name": "account",
          "type": "address"
        }
      ],
      "name": "FarmerRemoved",
      "type": "event",
      "signature": "0xa5e0f060af304ab17dd418c7927e3da3ae7868189bf387aee09ab179ccc572f2"
    },
    {
      "constant": false,
      "inputs": [],
      "name": "kill",
      "outputs": [],
      "payable": false,
      "stateMutability": "nonpayable",
      "type": "function",
      "signature": "0x41c0e1b5"
    },
    {
      "constant": false,
      "inputs": [
        {
          "name": "_upc",
          "type": "uint256"
        },
        {
          "name": "_originFarmerID",
          "type": "address"
        },
        {
          "name": "_originFarmName",
          "type": "string"
        },
        {
          "name": "_originFarmInformation",
          "type": "string"
        },
        {
          "name": "_originFarmLatitude",
          "type": "string"
        },
        {
          "name": "_originFarmLongitude",
          "type": "string"
        },
        {
          "name": "_productNotes",
          "type": "string"
        }
      ],
      "name": "harvestItem",
      "outputs": [],
      "payable": false,
      "stateMutability": "nonpayable",
      "type": "function",
      "signature": "0xbdd8a6a8"
    },
    {
      "constant": false,
      "inputs": [
        {
          "name": "_upc",
          "type": "uint256"
        },
        {
          "name": "cooperative",
          "type": "address"
        }
      ],
      "name": "shipGrappesItem",
      "outputs": [],
      "payable": false,
      "stateMutability": "nonpayable",
      "type": "function",
      "signature": "0x24c966aa"
    },
    {
      "constant": false,
      "inputs": [
        {
          "name": "_upc",
          "type": "uint256"
        }
      ],
      "name": "processItem",
      "outputs": [],
      "payable": false,
      "stateMutability": "nonpayable",
      "type": "function",
      "signature": "0x49dae766"
    },
    {
      "constant": false,
      "inputs": [
        {
          "name": "_upc",
          "type": "uint256"
        }
      ],
      "name": "ageItem",
      "outputs": [],
      "payable": false,
      "stateMutability": "nonpayable",
      "type": "function",
      "signature": "0x3c59ed15"
    },
    {
      "constant": false,
      "inputs": [
        {
          "name": "_upc",
          "type": "uint256"
        }
      ],
      "name": "bottleItem",
      "outputs": [],
      "payable": false,
      "stateMutability": "nonpayable",
      "type": "function",
      "signature": "0xb585a6b1"
    },
    {
      "constant": false,
      "inputs": [
        {
          "name": "_upc",
          "type": "uint256"
        }
      ],
      "name": "boxItem",
      "outputs": [],
      "payable": false,
      "stateMutability": "nonpayable",
      "type": "function",
      "signature": "0x1c7842aa"
    },
    {
      "constant": false,
      "inputs": [
        {
          "name": "_upc",
          "type": "uint256"
        },
        {
          "name": "price",
          "type": "uint256"
        }
      ],
      "name": "putForSaleItem",
      "outputs": [],
      "payable": false,
      "stateMutability": "nonpayable",
      "type": "function",
      "signature": "0x11120f65"
    },
    {
      "constant": false,
      "inputs": [
        {
          "name": "_upc",
          "type": "uint256"
        }
      ],
      "name": "buyItem",
      "outputs": [],
      "payable": true,
      "stateMutability": "payable",
      "type": "function",
      "signature": "0xe7fb74c7"
    },
    {
      "constant": false,
      "inputs": [
        {
          "name": "_upc",
          "type": "uint256"
        },
        {
          "name": "retailer",
          "type": "address"
        }
      ],
      "name": "shipItem",
      "outputs": [],
      "payable": false,
      "stateMutability": "nonpayable",
      "type": "function",
      "signature": "0xbb4f288d"
    },
    {
      "constant": false,
      "inputs": [
        {
          "name": "_upc",
          "type": "uint256"
        },
        {
          "name": "_price",
          "type": "uint256"
        }
      ],
      "name": "receiveItem",
      "outputs": [],
      "payable": false,
      "stateMutability": "nonpayable",
      "type": "function",
      "signature": "0xb50f60e7"
    },
    {
      "constant": false,
      "inputs": [
        {
          "name": "_upc",
          "type": "uint256"
        }
      ],
      "name": "purchaseItem",
      "outputs": [],
      "payable": true,
      "stateMutability": "payable",
      "type": "function",
      "signature": "0xd38ea5bf"
    },
    {
      "constant": true,
      "inputs": [
        {
          "name": "_upc",
          "type": "uint256"
        }
      ],
      "name": "fetchItemBufferOne",
      "outputs": [
        {
          "name": "itemSKU",
          "type": "uint256"
        },
        {
          "name": "itemUPC",
          "type": "uint256"
        },
        {
          "name": "ownerID",
          "type": "address"
        },
        {
          "name": "originFarmerID",
          "type": "address"
        },
        {
          "name": "originFarmName",
          "type": "string"
        },
        {
          "name": "originFarmInformation",
          "type": "string"
        },
        {
          "name": "originFarmLatitude",
          "type": "string"
        },
        {
          "name": "originFarmLongitude",
          "type": "string"
        }
      ],
      "payable": false,
      "stateMutability": "view",
      "type": "function",
      "signature": "0x77c45913"
    },
    {
      "constant": true,
      "inputs": [
        {
          "name": "_upc",
          "type": "uint256"
        }
      ],
      "name": "fetchItemBufferTwo",
      "outputs": [
        {
          "name": "itemSKU",
          "type": "uint256"
        },
        {
          "name": "itemUPC",
          "type": "uint256"
        },
        {
          "name": "productID",
          "type": "uint256"
        },
        {
          "name": "productNotes",
          "type": "string"
        },
        {
          "name": "productPrice",
          "type": "uint256"
        },
        {
          "name": "itemState",
          "type": "uint256"
        },
        {
          "name": "cooperativeID",
          "type": "address"
        },
        {
          "name": "distributorID",
          "type": "address"
        },
        {
          "name": "retailerID",
          "type": "address"
        },
        {
          "name": "consumerID",
          "type": "address"
        }
      ],
      "payable": false,
      "stateMutability": "view",
      "type": "function",
      "signature": "0x66225ff9"
    }
  ],
  "bytecode": "0x60806040526200001e33620000dd640100000000026401000000009004565b620000383362000147640100000000026401000000009004565b6200005233620001b1640100000000026401000000009004565b6200006c336200021b640100000000026401000000009004565b620000863362000285640100000000026401000000009004565b33600560006101000a81548173ffffffffffffffffffffffffffffffffffffffff021916908373ffffffffffffffffffffffffffffffffffffffff1602179055506001600781905550600160068190555062000447565b62000101816000620002ef64010000000002620036a3179091906401000000009004565b8073ffffffffffffffffffffffffffffffffffffffff167f2e0ded4123377a3c2bc9a26f1717655a129e2f20752924d42e730ec89c83dbd060405160405180910390a250565b6200016b816001620002ef64010000000002620036a3179091906401000000009004565b8073ffffffffffffffffffffffffffffffffffffffff167f579ad2dcd69a75f5a0fe24102090ff11fdcb275fb63aaa7c529bb4d256cd3e1e60405160405180910390a250565b620001d5816002620002ef64010000000002620036a3179091906401000000009004565b8073ffffffffffffffffffffffffffffffffffffffff167fddbf200aa634dc3fb81cfd68583dd1040d1c751d335e1d86b631bde3e977fea860405160405180910390a250565b6200023f816003620002ef64010000000002620036a3179091906401000000009004565b8073ffffffffffffffffffffffffffffffffffffffff167f71ae26cad02663e3d92efd6ec56031a80d74a20c0ab4183faa8bf262261c9baa60405160405180910390a250565b620002a9816004620002ef64010000000002620036a3179091906401000000009004565b8073ffffffffffffffffffffffffffffffffffffffff167f28b26e7a3d20aedbc5f8f2ebf7da671c0491723a2b78f47a097b0e46dee0714260405160405180910390a250565b600073ffffffffffffffffffffffffffffffffffffffff168173ffffffffffffffffffffffffffffffffffffffff16141515156200032c57600080fd5b620003478282620003b2640100000000026401000000009004565b1515156200035457600080fd5b60018260000160008373ffffffffffffffffffffffffffffffffffffffff1673ffffffffffffffffffffffffffffffffffffffff16815260200190815260200160002060006101000a81548160ff0219169083151502179055505050565b60008073ffffffffffffffffffffffffffffffffffffffff168273ffffffffffffffffffffffffffffffffffffffff1614151515620003f057600080fd5b8260000160008373ffffffffffffffffffffffffffffffffffffffff1673ffffffffffffffffffffffffffffffffffffffff16815260200190815260200160002060009054906101000a900460ff16905092915050565b6139e080620004576000396000f3fe608060405260043610610175576000357c0100000000000000000000000000000000000000000000000000000000900463ffffffff16806311120f651461017a578063112940f9146101bf5780631c7842aa1461021057806324c966aa1461024b5780633c59ed15146102a657806341c0e1b5146102e157806349dae766146102f85780635da09b881461033357806361e6982d1461039c578063644241db146103b357806366225ff9146103ca5780637250e2241461056d57806377c45913146105be57806380c3f96d1461082a57806380fc0ce41461087b578063834ff739146108925780638ec4f505146108fb5780638f0c86fa1461094c578063a3fac137146109b5578063b50f60e714610a1e578063b585a6b114610a63578063b942906914610a9e578063bb4f288d14610b07578063bdd8a6a814610b62578063d38ea5bf14610eb0578063db0e6a2f14610ede578063e7fb74c714610ef5578063eb34ce8c14610f23578063ebeab3f914610f3a575b600080fd5b34801561018657600080fd5b506101bd6004803603604081101561019d57600080fd5b810190808035906020019092919080359060200190929190505050610f8b565b005b3480156101cb57600080fd5b5061020e600480360360208110156101e257600080fd5b81019080803573ffffffffffffffffffffffffffffffffffffffff1690602001909291905050506110e3565b005b34801561021c57600080fd5b506102496004803603602081101561023357600080fd5b8101908080359060200190929190505050611103565b005b34801561025757600080fd5b506102a46004803603604081101561026e57600080fd5b8101908080359060200190929190803573ffffffffffffffffffffffffffffffffffffffff169060200190929190505050611251565b005b3480156102b257600080fd5b506102df600480360360208110156102c957600080fd5b810190808035906020019092919050505061145a565b005b3480156102ed57600080fd5b506102f66115a8565b005b34801561030457600080fd5b506103316004803603602081101561031b57600080fd5b810190808035906020019092919050505061163b565b005b34801561033f57600080fd5b506103826004803603602081101561035657600080fd5b81019080803573ffffffffffffffffffffffffffffffffffffffff169060200190929190505050611789565b604051808215151515815260200191505060405180910390f35b3480156103a857600080fd5b506103b16117a6565b005b3480156103bf57600080fd5b506103c86117b1565b005b3480156103d657600080fd5b50610403600480360360208110156103ed57600080fd5b81019080803590602001909291905050506117bc565b604051808b81526020018a8152602001898152602001806020018881526020018781526020018673ffffffffffffffffffffffffffffffffffffffff1673ffffffffffffffffffffffffffffffffffffffff1681526020018573ffffffffffffffffffffffffffffffffffffffff1673ffffffffffffffffffffffffffffffffffffffff1681526020018473ffffffffffffffffffffffffffffffffffffffff1673ffffffffffffffffffffffffffffffffffffffff1681526020018373ffffffffffffffffffffffffffffffffffffffff1673ffffffffffffffffffffffffffffffffffffffff168152602001828103825289818151815260200191508051906020019080838360005b8381101561052957808201518184015260208101905061050e565b50505050905090810190601f1680156105565780820380516001836020036101000a031916815260200191505b509b50505050505050505050505060405180910390f35b34801561057957600080fd5b506105bc6004803603602081101561059057600080fd5b81019080803573ffffffffffffffffffffffffffffffffffffffff169060200190929190505050611def565b005b3480156105ca57600080fd5b506105f7600480360360208110156105e157600080fd5b8101908080359060200190929190505050611e0f565b604051808981526020018881526020018773ffffffffffffffffffffffffffffffffffffffff1673ffffffffffffffffffffffffffffffffffffffff1681526020018673ffffffffffffffffffffffffffffffffffffffff1673ffffffffffffffffffffffffffffffffffffffff16815260200180602001806020018060200180602001858103855289818151815260200191508051906020019080838360005b838110156106b3578082015181840152602081019050610698565b50505050905090810190601f1680156106e05780820380516001836020036101000a031916815260200191505b50858103845288818151815260200191508051906020019080838360005b838110156107195780820151818401526020810190506106fe565b50505050905090810190601f1680156107465780820380516001836020036101000a031916815260200191505b50858103835287818151815260200191508051906020019080838360005b8381101561077f578082015181840152602081019050610764565b50505050905090810190601f1680156107ac5780820380516001836020036101000a031916815260200191505b50858103825286818151815260200191508051906020019080838360005b838110156107e55780820151818401526020810190506107ca565b50505050905090810190601f1680156108125780820380516001836020036101000a031916815260200191505b509c5050505050505050505050505060405180910390f35b34801561083657600080fd5b506108796004803603602081101561084d57600080fd5b81019080803573ffffffffffffffffffffffffffffffffffffffff169060200190929190505050612418565b005b34801561088757600080fd5b50610890612438565b005b34801561089e57600080fd5b506108e1600480360360208110156108b557600080fd5b81019080803573ffffffffffffffffffffffffffffffffffffffff169060200190929190505050612443565b604051808215151515815260200191505060405180910390f35b34801561090757600080fd5b5061094a6004803603602081101561091e57600080fd5b81019080803573ffffffffffffffffffffffffffffffffffffffff169060200190929190505050612460565b005b34801561095857600080fd5b5061099b6004803603602081101561096f57600080fd5b81019080803573ffffffffffffffffffffffffffffffffffffffff169060200190929190505050612480565b604051808215151515815260200191505060405180910390f35b3480156109c157600080fd5b50610a04600480360360208110156109d857600080fd5b81019080803573ffffffffffffffffffffffffffffffffffffffff16906020019092919050505061249d565b604051808215151515815260200191505060405180910390f35b348015610a2a57600080fd5b50610a6160048036036040811015610a4157600080fd5b8101908080359060200190929190803590602001909291905050506124ba565b005b348015610a6f57600080fd5b50610a9c60048036036020811015610a8657600080fd5b8101908080359060200190929190505050612612565b005b348015610aaa57600080fd5b50610aed60048036036020811015610ac157600080fd5b81019080803573ffffffffffffffffffffffffffffffffffffffff169060200190929190505050612760565b604051808215151515815260200191505060405180910390f35b348015610b1357600080fd5b50610b6060048036036040811015610b2a57600080fd5b8101908080359060200190929190803573ffffffffffffffffffffffffffffffffffffffff16906020019092919050505061277d565b005b348015610b6e57600080fd5b50610eae600480360360e0811015610b8557600080fd5b8101908080359060200190929190803573ffffffffffffffffffffffffffffffffffffffff16906020019092919080359060200190640100000000811115610bcc57600080fd5b820183602082011115610bde57600080fd5b80359060200191846001830284011164010000000083111715610c0057600080fd5b91908080601f016020809104026020016040519081016040528093929190818152602001838380828437600081840152601f19601f82011690508083019250505050505050919291929080359060200190640100000000811115610c6357600080fd5b820183602082011115610c7557600080fd5b80359060200191846001830284011164010000000083111715610c9757600080fd5b91908080601f016020809104026020016040519081016040528093929190818152602001838380828437600081840152601f19601f82011690508083019250505050505050919291929080359060200190640100000000811115610cfa57600080fd5b820183602082011115610d0c57600080fd5b80359060200191846001830284011164010000000083111715610d2e57600080fd5b91908080601f016020809104026020016040519081016040528093929190818152602001838380828437600081840152601f19601f82011690508083019250505050505050919291929080359060200190640100000000811115610d9157600080fd5b820183602082011115610da357600080fd5b80359060200191846001830284011164010000000083111715610dc557600080fd5b91908080601f016020809104026020016040519081016040528093929190818152602001838380828437600081840152601f19601f82011690508083019250505050505050919291929080359060200190640100000000811115610e2857600080fd5b820183602082011115610e3a57600080fd5b80359060200191846001830284011164010000000083111715610e5c57600080fd5b91908080601f016020809104026020016040519081016040528093929190818152602001838380828437600081840152601f19601f820116905080830192505050505050509192919290505050612968565b005b610edc60048036036020811015610ec657600080fd5b8101908080359060200190929190505050612d8b565b005b348015610eea57600080fd5b50610ef3612ff0565b005b610f2160048036036020811015610f0b57600080fd5b8101908080359060200190929190505050612ffb565b005b348015610f2f57600080fd5b50610f38613260565b005b348015610f4657600080fd5b50610f8960048036036020811015610f5d57600080fd5b81019080803573ffffffffffffffffffffffffffffffffffffffff16906020019092919050505061326b565b005b816005600a811115610f9957fe5b60086000838152602001908152602001600020600b0160009054906101000a900460ff16600a811115610fc857fe5b141515610fd457600080fd5b8260006008600083815260200190815260200160002090508060020160009054906101000a900473ffffffffffffffffffffffffffffffffffffffff1673ffffffffffffffffffffffffffffffffffffffff163373ffffffffffffffffffffffffffffffffffffffff1614151561104a57600080fd5b6110533361249d565b151561105e57600080fd5b6000600860008781526020019081526020016000209050600681600b0160006101000a81548160ff0219169083600a81111561109657fe5b02179055508481600a01819055507fa96ae0fc3224ebd79eebfe54bd130cc9cb94416cddd1f2386115e00b72532468866040518082815260200191505060405180910390a1505050505050565b6110ec33612443565b15156110f757600080fd5b6111008161328b565b50565b806004600a81111561111157fe5b60086000838152602001908152602001600020600b0160009054906101000a900460ff16600a81111561114057fe5b14151561114c57600080fd5b8160006008600083815260200190815260200160002090508060020160009054906101000a900473ffffffffffffffffffffffffffffffffffffffff1673ffffffffffffffffffffffffffffffffffffffff163373ffffffffffffffffffffffffffffffffffffffff161415156111c257600080fd5b6111cb3361249d565b15156111d657600080fd5b6000600860008681526020019081526020016000209050600581600b0160006101000a81548160ff0219169083600a81111561120e57fe5b02179055507fe70f42326e85c2ed7f23dfdb2408f440dc9abcb0a9bc37b6e26803ed4690254a856040518082815260200191505060405180910390a15050505050565b816000600a81111561125f57fe5b60086000838152602001908152602001600020600b0160009054906101000a900460ff16600a81111561128e57fe5b14151561129a57600080fd5b8260006008600083815260200190815260200160002090508060020160009054906101000a900473ffffffffffffffffffffffffffffffffffffffff1673ffffffffffffffffffffffffffffffffffffffff163373ffffffffffffffffffffffffffffffffffffffff1614151561131057600080fd5b61131933612760565b151561132457600080fd5b6000600860008781526020019081526020016000209050600181600b0160006101000a81548160ff0219169083600a81111561135c57fe5b0217905550848160020160006101000a81548173ffffffffffffffffffffffffffffffffffffffff021916908373ffffffffffffffffffffffffffffffffffffffff1602179055508481600b0160016101000a81548173ffffffffffffffffffffffffffffffffffffffff021916908373ffffffffffffffffffffffffffffffffffffffff1602179055507ff4159b4f73b8c23626f19f8bc04d7e074c3d93ddc12f8b174e50d3acdb0211878686604051808381526020018273ffffffffffffffffffffffffffffffffffffffff1673ffffffffffffffffffffffffffffffffffffffff1681526020019250505060405180910390a1505050505050565b806002600a81111561146857fe5b60086000838152602001908152602001600020600b0160009054906101000a900460ff16600a81111561149757fe5b1415156114a357600080fd5b8160006008600083815260200190815260200160002090508060020160009054906101000a900473ffffffffffffffffffffffffffffffffffffffff1673ffffffffffffffffffffffffffffffffffffffff163373ffffffffffffffffffffffffffffffffffffffff1614151561151957600080fd5b6115223361249d565b151561152d57600080fd5b6000600860008681526020019081526020016000209050600381600b0160006101000a81548160ff0219169083600a81111561156557fe5b02179055507ffa795f995e12c074777bab440425afc98477f6cfceceba5ca50feae5089e59ce856040518082815260200191505060405180910390a15050505050565b600560009054906101000a900473ffffffffffffffffffffffffffffffffffffffff1673ffffffffffffffffffffffffffffffffffffffff163373ffffffffffffffffffffffffffffffffffffffff16141561163957600560009054906101000a900473ffffffffffffffffffffffffffffffffffffffff1673ffffffffffffffffffffffffffffffffffffffff16ff5b565b806001600a81111561164957fe5b60086000838152602001908152602001600020600b0160009054906101000a900460ff16600a81111561167857fe5b14151561168457600080fd5b8160006008600083815260200190815260200160002090508060020160009054906101000a900473ffffffffffffffffffffffffffffffffffffffff1673ffffffffffffffffffffffffffffffffffffffff163373ffffffffffffffffffffffffffffffffffffffff161415156116fa57600080fd5b6117033361249d565b151561170e57600080fd5b6000600860008681526020019081526020016000209050600281600b0160006101000a81548160ff0219169083600a81111561174657fe5b02179055507f5afe3b1bf87069693c075da5c22a98d63d1aef98a30dbbe538d0781a98b77ee5856040518082815260200191505060405180910390a15050505050565b600061179f8260036132e590919063ffffffff16565b9050919050565b6117af33613379565b565b6117ba336133d3565b565b600080600060606000806000806000806117d4613802565b600860008d8152602001908152602001600020610200604051908101604052908160008201548152602001600182015481526020016002820160009054906101000a900473ffffffffffffffffffffffffffffffffffffffff1673ffffffffffffffffffffffffffffffffffffffff1673ffffffffffffffffffffffffffffffffffffffff1681526020016003820160009054906101000a900473ffffffffffffffffffffffffffffffffffffffff1673ffffffffffffffffffffffffffffffffffffffff1673ffffffffffffffffffffffffffffffffffffffff168152602001600482018054600181600116156101000203166002900480601f01602080910402602001604051908101604052809291908181526020018280546001816001161561010002031660029004801561194d5780601f106119225761010080835404028352916020019161194d565b820191906000526020600020905b81548152906001019060200180831161193057829003601f168201915b50505050508152602001600582018054600181600116156101000203166002900480601f0160208091040260200160405190810160405280929190818152602001828054600181600116156101000203166002900480156119ef5780601f106119c4576101008083540402835291602001916119ef565b820191906000526020600020905b8154815290600101906020018083116119d257829003601f168201915b50505050508152602001600682018054600181600116156101000203166002900480601f016020809104026020016040519081016040528092919081815260200182805460018160011615610100020316600290048015611a915780601f10611a6657610100808354040283529160200191611a91565b820191906000526020600020905b815481529060010190602001808311611a7457829003601f168201915b50505050508152602001600782018054600181600116156101000203166002900480601f016020809104026020016040519081016040528092919081815260200182805460018160011615610100020316600290048015611b335780601f10611b0857610100808354040283529160200191611b33565b820191906000526020600020905b815481529060010190602001808311611b1657829003601f168201915b5050505050815260200160088201548152602001600982018054600181600116156101000203166002900480601f016020809104026020016040519081016040528092919081815260200182805460018160011615610100020316600290048015611bdf5780601f10611bb457610100808354040283529160200191611bdf565b820191906000526020600020905b815481529060010190602001808311611bc257829003601f168201915b50505050508152602001600a8201548152602001600b820160009054906101000a900460ff16600a811115611c1057fe5b600a811115611c1b57fe5b8152602001600b820160019054906101000a900473ffffffffffffffffffffffffffffffffffffffff1673ffffffffffffffffffffffffffffffffffffffff1673ffffffffffffffffffffffffffffffffffffffff168152602001600c820160009054906101000a900473ffffffffffffffffffffffffffffffffffffffff1673ffffffffffffffffffffffffffffffffffffffff1673ffffffffffffffffffffffffffffffffffffffff168152602001600d820160009054906101000a900473ffffffffffffffffffffffffffffffffffffffff1673ffffffffffffffffffffffffffffffffffffffff1673ffffffffffffffffffffffffffffffffffffffff168152602001600e820160009054906101000a900473ffffffffffffffffffffffffffffffffffffffff1673ffffffffffffffffffffffffffffffffffffffff1673ffffffffffffffffffffffffffffffffffffffff1681525050905080600001518160200151826101000151836101200151846101400151856101600151600a811115611da657fe5b866101800151876101a00151886101c00151896101e001518696508393508292508191508090509a509a509a509a509a509a509a509a509a509a50509193959799509193959799565b611df833612480565b1515611e0357600080fd5b611e0c8161342d565b50565b600080600080606080606080611e23613802565b600860008b8152602001908152602001600020610200604051908101604052908160008201548152602001600182015481526020016002820160009054906101000a900473ffffffffffffffffffffffffffffffffffffffff1673ffffffffffffffffffffffffffffffffffffffff1673ffffffffffffffffffffffffffffffffffffffff1681526020016003820160009054906101000a900473ffffffffffffffffffffffffffffffffffffffff1673ffffffffffffffffffffffffffffffffffffffff1673ffffffffffffffffffffffffffffffffffffffff168152602001600482018054600181600116156101000203166002900480601f016020809104026020016040519081016040528092919081815260200182805460018160011615610100020316600290048015611f9c5780601f10611f7157610100808354040283529160200191611f9c565b820191906000526020600020905b815481529060010190602001808311611f7f57829003601f168201915b50505050508152602001600582018054600181600116156101000203166002900480601f01602080910402602001604051908101604052809291908181526020018280546001816001161561010002031660029004801561203e5780601f106120135761010080835404028352916020019161203e565b820191906000526020600020905b81548152906001019060200180831161202157829003601f168201915b50505050508152602001600682018054600181600116156101000203166002900480601f0160208091040260200160405190810160405280929190818152602001828054600181600116156101000203166002900480156120e05780601f106120b5576101008083540402835291602001916120e0565b820191906000526020600020905b8154815290600101906020018083116120c357829003601f168201915b50505050508152602001600782018054600181600116156101000203166002900480601f0160208091040260200160405190810160405280929190818152602001828054600181600116156101000203166002900480156121825780601f1061215757610100808354040283529160200191612182565b820191906000526020600020905b81548152906001019060200180831161216557829003601f168201915b5050505050815260200160088201548152602001600982018054600181600116156101000203166002900480601f01602080910402602001604051908101604052809291908181526020018280546001816001161561010002031660029004801561222e5780601f106122035761010080835404028352916020019161222e565b820191906000526020600020905b81548152906001019060200180831161221157829003601f168201915b50505050508152602001600a8201548152602001600b820160009054906101000a900460ff16600a81111561225f57fe5b600a81111561226a57fe5b8152602001600b820160019054906101000a900473ffffffffffffffffffffffffffffffffffffffff1673ffffffffffffffffffffffffffffffffffffffff1673ffffffffffffffffffffffffffffffffffffffff168152602001600c820160009054906101000a900473ffffffffffffffffffffffffffffffffffffffff1673ffffffffffffffffffffffffffffffffffffffff1673ffffffffffffffffffffffffffffffffffffffff168152602001600d820160009054906101000a900473ffffffffffffffffffffffffffffffffffffffff1673ffffffffffffffffffffffffffffffffffffffff1673ffffffffffffffffffffffffffffffffffffffff168152602001600e820160009054906101000a900473ffffffffffffffffffffffffffffffffffffffff1673ffffffffffffffffffffffffffffffffffffffff1673ffffffffffffffffffffffffffffffffffffffff16815250509050806000015181602001518260400151836060015184608001518560a001518660c001518760e001518393508292508191508090509850985098509850985098509850985050919395975091939597565b61242133612760565b151561242c57600080fd5b61243581613487565b50565b612441336134e1565b565b60006124598260046132e590919063ffffffff16565b9050919050565b61246933611789565b151561247457600080fd5b61247d8161353b565b50565b60006124968260026132e590919063ffffffff16565b9050919050565b60006124b38260016132e590919063ffffffff16565b9050919050565b816008600a8111156124c857fe5b60086000838152602001908152602001600020600b0160009054906101000a900460ff16600a8111156124f757fe5b14151561250357600080fd5b8260006008600083815260200190815260200160002090508060020160009054906101000a900473ffffffffffffffffffffffffffffffffffffffff1673ffffffffffffffffffffffffffffffffffffffff163373ffffffffffffffffffffffffffffffffffffffff1614151561257957600080fd5b61258233611789565b151561258d57600080fd5b6000600860008781526020019081526020016000209050600981600b0160006101000a81548160ff0219169083600a8111156125c557fe5b02179055508481600a01819055507fa8142743f8f70a4c26f3691cf4ed59718381fb2f18070ec52be1f1022d855557866040518082815260200191505060405180910390a1505050505050565b806003600a81111561262057fe5b60086000838152602001908152602001600020600b0160009054906101000a900460ff16600a81111561264f57fe5b14151561265b57600080fd5b8160006008600083815260200190815260200160002090508060020160009054906101000a900473ffffffffffffffffffffffffffffffffffffffff1673ffffffffffffffffffffffffffffffffffffffff163373ffffffffffffffffffffffffffffffffffffffff161415156126d157600080fd5b6126da3361249d565b15156126e557600080fd5b6000600860008681526020019081526020016000209050600481600b0160006101000a81548160ff0219169083600a81111561271d57fe5b02179055507f8aff1823bf9f30e2f7eacb17de47cc2917592a34188a0b47c0c228c82c38fc54856040518082815260200191505060405180910390a15050505050565b60006127768260006132e590919063ffffffff16565b9050919050565b816007600a81111561278b57fe5b60086000838152602001908152602001600020600b0160009054906101000a900460ff16600a8111156127ba57fe5b1415156127c657600080fd5b8260006008600083815260200190815260200160002090508060020160009054906101000a900473ffffffffffffffffffffffffffffffffffffffff1673ffffffffffffffffffffffffffffffffffffffff163373ffffffffffffffffffffffffffffffffffffffff1614151561283c57600080fd5b8361284681611789565b151561285157600080fd5b61285a33612480565b151561286557600080fd5b6000600860008881526020019081526020016000209050600881600b0160006101000a81548160ff0219169083600a81111561289d57fe5b0217905550858160020160006101000a81548173ffffffffffffffffffffffffffffffffffffffff021916908373ffffffffffffffffffffffffffffffffffffffff1602179055508581600d0160006101000a81548173ffffffffffffffffffffffffffffffffffffffff021916908373ffffffffffffffffffffffffffffffffffffffff1602179055507ff00b9a5725b80c54016f42114f6ed7792d22eecb116011c4afac29c57bef6c95876040518082815260200191505060405180910390a150505050505050565b61297133612760565b151561297c57600080fd5b612984613802565b6102006040519081016040528060075481526020018981526020018873ffffffffffffffffffffffffffffffffffffffff1681526020018873ffffffffffffffffffffffffffffffffffffffff16815260200187815260200186815260200185815260200184815260200189600754018152602001838152602001600081526020016000600a811115612a1357fe5b8152602001600073ffffffffffffffffffffffffffffffffffffffff168152602001600073ffffffffffffffffffffffffffffffffffffffff168152602001600073ffffffffffffffffffffffffffffffffffffffff168152602001600073ffffffffffffffffffffffffffffffffffffffff16815250905080600860008a8152602001908152602001600020600082015181600001556020820151816001015560408201518160020160006101000a81548173ffffffffffffffffffffffffffffffffffffffff021916908373ffffffffffffffffffffffffffffffffffffffff16021790555060608201518160030160006101000a81548173ffffffffffffffffffffffffffffffffffffffff021916908373ffffffffffffffffffffffffffffffffffffffff1602179055506080820151816004019080519060200190612b5e92919061390f565b5060a0820151816005019080519060200190612b7b92919061390f565b5060c0820151816006019080519060200190612b9892919061390f565b5060e0820151816007019080519060200190612bb592919061390f565b506101008201518160080155610120820151816009019080519060200190612bde92919061390f565b5061014082015181600a015561016082015181600b0160006101000a81548160ff0219169083600a811115612c0f57fe5b021790555061018082015181600b0160016101000a81548173ffffffffffffffffffffffffffffffffffffffff021916908373ffffffffffffffffffffffffffffffffffffffff1602179055506101a082015181600c0160006101000a81548173ffffffffffffffffffffffffffffffffffffffff021916908373ffffffffffffffffffffffffffffffffffffffff1602179055506101c082015181600d0160006101000a81548173ffffffffffffffffffffffffffffffffffffffff021916908373ffffffffffffffffffffffffffffffffffffffff1602179055506101e082015181600e0160006101000a81548173ffffffffffffffffffffffffffffffffffffffff021916908373ffffffffffffffffffffffffffffffffffffffff160217905550905050600160075401600781905550876006819055507f8e55ccfc9778ff8eba1646d765cf1982537ce0f9257054a17b48aad745250183886040518082815260200191505060405180910390a15050505050505050565b806009600a811115612d9957fe5b60086000838152602001908152602001600020600b0160009054906101000a900460ff16600a811115612dc857fe5b141515612dd457600080fd5b81600060086000838152602001908152602001600020905080600a01543410151515612dff57600080fd5b612e0833612443565b1515612e1357600080fd5b836000600860008781526020019081526020016000209050600a81600b0160006101000a81548160ff0219169083600a811115612e4c57fe5b0217905550338160020160006101000a81548173ffffffffffffffffffffffffffffffffffffffff021916908373ffffffffffffffffffffffffffffffffffffffff1602179055503381600e0160006101000a81548173ffffffffffffffffffffffffffffffffffffffff021916908373ffffffffffffffffffffffffffffffffffffffff16021790555080600d0160009054906101000a900473ffffffffffffffffffffffffffffffffffffffff1673ffffffffffffffffffffffffffffffffffffffff166108fc82600a01549081150290604051600060405180830381858888f19350505050158015612f45573d6000803e3d6000fd5b507f653d56639fee6b566a5c804764e9689de38645f0b733df89a36a1b7b42173dd8866040518082815260200191505060405180910390a150600060086000838152602001908152602001600020600a01549050600081340390503373ffffffffffffffffffffffffffffffffffffffff166108fc829081150290604051600060405180830381858888f19350505050158015612fe6573d6000803e3d6000fd5b5050505050505050565b612ff933613595565b565b806006600a81111561300957fe5b60086000838152602001908152602001600020600b0160009054906101000a900460ff16600a81111561303857fe5b14151561304457600080fd5b81600060086000838152602001908152602001600020905080600a0154341015151561306f57600080fd5b61307833612480565b151561308357600080fd5b836000600860008781526020019081526020016000209050600781600b0160006101000a81548160ff0219169083600a8111156130bc57fe5b0217905550338160020160006101000a81548173ffffffffffffffffffffffffffffffffffffffff021916908373ffffffffffffffffffffffffffffffffffffffff1602179055503381600c0160006101000a81548173ffffffffffffffffffffffffffffffffffffffff021916908373ffffffffffffffffffffffffffffffffffffffff16021790555080600b0160019054906101000a900473ffffffffffffffffffffffffffffffffffffffff1673ffffffffffffffffffffffffffffffffffffffff166108fc82600a01549081150290604051600060405180830381858888f193505050501580156131b5573d6000803e3d6000fd5b507f92f64ca637d023f354075a4be751b169c1a8a9ccb6d33cdd0cb3520543995727866040518082815260200191505060405180910390a150600060086000838152602001908152602001600020600a01549050600081340390503373ffffffffffffffffffffffffffffffffffffffff166108fc829081150290604051600060405180830381858888f19350505050158015613256573d6000803e3d6000fd5b5050505050505050565b613269336135ef565b565b6132743361249d565b151561327f57600080fd5b61328881613649565b50565b61329f8160046136a390919063ffffffff16565b8073ffffffffffffffffffffffffffffffffffffffff167f28b26e7a3d20aedbc5f8f2ebf7da671c0491723a2b78f47a097b0e46dee0714260405160405180910390a250565b60008073ffffffffffffffffffffffffffffffffffffffff168273ffffffffffffffffffffffffffffffffffffffff161415151561332257600080fd5b8260000160008373ffffffffffffffffffffffffffffffffffffffff1673ffffffffffffffffffffffffffffffffffffffff16815260200190815260200160002060009054906101000a900460ff16905092915050565b61338d81600461375390919063ffffffff16565b8073ffffffffffffffffffffffffffffffffffffffff167fe3f5ed5f263f1f01764a96edfc7d025f511ec5f7d180e8816908b78bcf74f09860405160405180910390a250565b6133e781600261375390919063ffffffff16565b8073ffffffffffffffffffffffffffffffffffffffff167f126174f6cf49c81cdb4a9214c6b8f037bef55b4ec31e4fc776cea2a1c8a88d5960405160405180910390a250565b6134418160026136a390919063ffffffff16565b8073ffffffffffffffffffffffffffffffffffffffff167fddbf200aa634dc3fb81cfd68583dd1040d1c751d335e1d86b631bde3e977fea860405160405180910390a250565b61349b8160006136a390919063ffffffff16565b8073ffffffffffffffffffffffffffffffffffffffff167f2e0ded4123377a3c2bc9a26f1717655a129e2f20752924d42e730ec89c83dbd060405160405180910390a250565b6134f581600061375390919063ffffffff16565b8073ffffffffffffffffffffffffffffffffffffffff167fa5e0f060af304ab17dd418c7927e3da3ae7868189bf387aee09ab179ccc572f260405160405180910390a250565b61354f8160036136a390919063ffffffff16565b8073ffffffffffffffffffffffffffffffffffffffff167f71ae26cad02663e3d92efd6ec56031a80d74a20c0ab4183faa8bf262261c9baa60405160405180910390a250565b6135a981600361375390919063ffffffff16565b8073ffffffffffffffffffffffffffffffffffffffff167fdb7176e79cffef81cb01767dd0447a0b24bb72ca9778d4b245581086b2a7e6db60405160405180910390a250565b61360381600161375390919063ffffffff16565b8073ffffffffffffffffffffffffffffffffffffffff167f09fe829558b6a955c7a2f9663311fb4100ff2614b140d4bd4ac01764b5a2f6c960405160405180910390a250565b61365d8160016136a390919063ffffffff16565b8073ffffffffffffffffffffffffffffffffffffffff167f579ad2dcd69a75f5a0fe24102090ff11fdcb275fb63aaa7c529bb4d256cd3e1e60405160405180910390a250565b600073ffffffffffffffffffffffffffffffffffffffff168173ffffffffffffffffffffffffffffffffffffffff16141515156136df57600080fd5b6136e982826132e5565b1515156136f557600080fd5b60018260000160008373ffffffffffffffffffffffffffffffffffffffff1673ffffffffffffffffffffffffffffffffffffffff16815260200190815260200160002060006101000a81548160ff0219169083151502179055505050565b600073ffffffffffffffffffffffffffffffffffffffff168173ffffffffffffffffffffffffffffffffffffffff161415151561378f57600080fd5b61379982826132e5565b15156137a457600080fd5b60008260000160008373ffffffffffffffffffffffffffffffffffffffff1673ffffffffffffffffffffffffffffffffffffffff16815260200190815260200160002060006101000a81548160ff0219169083151502179055505050565b610200604051908101604052806000815260200160008152602001600073ffffffffffffffffffffffffffffffffffffffff168152602001600073ffffffffffffffffffffffffffffffffffffffff168152602001606081526020016060815260200160608152602001606081526020016000815260200160608152602001600081526020016000600a81111561389557fe5b8152602001600073ffffffffffffffffffffffffffffffffffffffff168152602001600073ffffffffffffffffffffffffffffffffffffffff168152602001600073ffffffffffffffffffffffffffffffffffffffff168152602001600073ffffffffffffffffffffffffffffffffffffffff1681525090565b828054600181600116156101000203166002900490600052602060002090601f016020900481019282601f1061395057805160ff191683800117855561397e565b8280016001018555821561397e579182015b8281111561397d578251825591602001919060010190613962565b5b50905061398b919061398f565b5090565b6139b191905b808211156139ad576000816000905550600101613995565b5090565b9056fea165627a7a72305820e721f0b7aac77180dd2d2a6fc3bcb7fa6aa1c6e536b0de613ffa6ddf1d5bf5650029",
  "source": "pragma solidity >=0.4.21 <0.6.0;\n\nimport '../roles/FarmerRole.sol';\nimport '../roles/CooperativeRole.sol';\nimport '../roles/DistributorRole.sol';\nimport '../roles/RetailerRole.sol';\nimport '../roles/ConsumerRole.sol';\n\n// Define a contract 'Supplychain'\ncontract SupplyChain is FarmerRole, CooperativeRole, DistributorRole, RetailerRole, ConsumerRole {\n\n    // Define 'owner'\n    address payable owner;\n\n    // Define a variable called 'upc' for Universal Product Code (UPC)\n    uint  upc;\n\n    // Define a variable called 'sku' for Stock Keeping Unit (SKU)\n    uint sku;\n\n    // Define a public mapping 'items' that maps the UPC to an Item.\n    mapping(uint => Item) items;\n\n    // Define a public mapping 'itemsHistory' that maps the UPC to an array of TxHash,\n    // that track its journey through the supply chain -- to be sent from DApp.\n    mapping(uint => string[]) itemsHistory;\n\n    // Define enum 'State' with the following values:\n    enum State\n    {\n        Harvested, // 0\n        GrappesShipped, // 1\n        Processed, // 2\n        Aged, // 3\n        Bottled, // 4\n        Boxed, // 5\n        ForSale, // 6\n        Sold, // 7\n        Shipped, // 8\n        Received, // 9\n        Purchased // 10\n    }\n\n    State constant defaultState = State.Harvested;\n\n    // Define a struct 'Item' with the following fields:\n    struct Item {\n        uint sku;  // Stock Keeping Unit (SKU)\n        uint upc; // Universal Product Code (UPC), generated by the Farmer, goes on the package, can be verified by the Consumer\n        address ownerID;  // Metamask-Ethereum address of the current owner as the product moves through 8 stages\n        address originFarmerID; // Metamask-Ethereum address of the Farmer\n        string originFarmName; // Farmer Name\n        string originFarmInformation;  // Farmer Information\n        string originFarmLatitude; // Farm Latitude\n        string originFarmLongitude;  // Farm Longitude\n        uint productID;  // Product ID potentially a combination of upc + sku\n        string productNotes; // Product Notes\n        uint productPrice; // Product Price\n        State itemState;  // Product State as represented in the enum above\n        address payable cooperativeID; // Metamask-Ethereum address of the Cooperative\n        address payable distributorID;  // Metamask-Ethereum address of the Distributor\n        address payable retailerID; // Metamask-Ethereum address of the Retailer\n        address payable consumerID; // Metamask-Ethereum address of the Consumer\n    }\n\n    // Define 8 events with the same 8 state values and accept 'upc' as input argument\n    event Harvested(uint upc);\n    event GrappesShipped(uint upc, address cooperative);\n    event Processed(uint upc);\n    event Aged(uint upc);\n    event Bottled(uint upc);\n    event Boxed(uint upc);\n    event ForSale(uint upc);\n    event Sold(uint upc);\n    event Shipped(uint upc);\n    event Received(uint upc);\n    event Purchased(uint upc);\n\n    // Define a modifer that checks to see if msg.sender == owner of the contract\n    modifier onlyOwner() {\n        require(msg.sender == owner);\n        _;\n    }\n\n    modifier onlyItemOwner(uint _upc) {\n        Item storage item = items[_upc];\n        require(msg.sender == item.ownerID);\n        _;\n    }\n\n    // Define a modifer that verifies the Caller\n    modifier verifyCaller (address _address) {\n        require(msg.sender == _address);\n        _;\n    }\n\n    // Define a modifier that checks if the paid amount is sufficient to cover the price\n    modifier paidEnough(uint _upc) {\n        Item storage item = items[_upc];\n        require(msg.value >= item.productPrice);\n        _;\n    }\n\n    // Define a modifier that checks the price and refunds the remaining balance\n    modifier checkValue(uint _upc) {\n        _;\n        uint _price = items[_upc].productPrice;\n        uint amountToReturn = msg.value - _price;\n        msg.sender.transfer(amountToReturn);\n    }\n\n    // Define a modifier that checks if an item.state of a upc is Harvested\n    modifier harvested(uint _upc) {\n        require(items[_upc].itemState == State.Harvested);\n        _;\n    }\n\n    // Define a modifier that checks if an item.state of a upc is GrappesShipped\n    modifier grappesShipped(uint _upc) {\n        require(items[_upc].itemState == State.GrappesShipped);\n        _;\n    }\n\n    // Define a modifier that checks if an item.state of a upc is Processed\n    modifier processed(uint _upc) {\n        require(items[_upc].itemState == State.Processed);\n        _;\n    }\n\n    // Define a modifier that checks if an item.state of a upc is Aged\n    modifier aged(uint _upc) {\n        require(items[_upc].itemState == State.Aged);\n        _;\n    }\n\n    // Define a modifier that checks if an item.state of a upc is Bottled\n    modifier bottled(uint _upc) {\n        require(items[_upc].itemState == State.Bottled);\n        _;\n    }\n\n    // Define a modifier that checks if an item.state of a upc is Boxed\n    modifier boxed(uint _upc) {\n        require(items[_upc].itemState == State.Boxed);\n        _;\n    }\n\n    // Define a modifier that checks if an item.state of a upc is ForSale\n    modifier forSale(uint _upc) {\n        require(items[_upc].itemState == State.ForSale);\n        _;\n    }\n\n    // Define a modifier that checks if an item.state of a upc is Sold\n    modifier sold(uint _upc) {\n        require(items[_upc].itemState == State.Sold);\n        _;\n    }\n\n    // Define a mgodifier that checks if an item.state of a upc is Shipped\n    modifier shipped(uint _upc) {\n        require(items[_upc].itemState == State.Shipped);\n        _;\n    }\n\n    // Define a modifier that checks if an item.state of a upc is Received\n    modifier received(uint _upc) {\n        require(items[_upc].itemState == State.Received);\n        _;\n    }\n\n    // Define a modifierc that checks if an item.state of a upc is Purchased\n    modifier purchased(uint _upc) {\n        require(items[_upc].itemState == State.Purchased);\n        _;\n    }\n\n    // In the constructor set 'owner' to the address that instantiated the contract\n    // and set 'sku' to 1\n    // and set 'upc' to 1\n    constructor() public payable {\n        owner = msg.sender;\n        sku = 1;\n        upc = 1;\n    }\n\n    // Define a function 'kill' if required\n    function kill() public {\n        if (msg.sender == owner) {\n            selfdestruct(owner);\n        }\n    }\n\n    // Define a function 'harvestItem' that allows a farmer to mark an item 'Harvested'\n    function harvestItem(uint _upc, address _originFarmerID, string memory _originFarmName, string memory _originFarmInformation, string memory _originFarmLatitude, string memory _originFarmLongitude, string memory _productNotes) onlyFarmer public\n    {\n        // Add the new item as part of paidEnoughHarvest\n        Item memory item = Item({\n            sku : sku,\n            upc : _upc,\n            ownerID : _originFarmerID,\n            originFarmerID : _originFarmerID,\n            originFarmName : _originFarmName,\n            originFarmInformation : _originFarmInformation,\n            originFarmLatitude : _originFarmLatitude,\n            originFarmLongitude : _originFarmLongitude,\n            productPrice : 0,\n            productID : sku + _upc,\n            productNotes : _productNotes,\n            itemState : defaultState,\n            cooperativeID : address(0),\n            distributorID : address(0),\n            retailerID : address(0),\n            consumerID : address(0)\n            });\n\n        items[_upc] = item;\n\n        // Increment sku\n        sku = sku + 1;\n\n        // Set upc to match _upc\n        upc = _upc;\n\n        // Emit the appropriate event\n        emit Harvested(_upc);\n    }\n\n    function shipGrappesItem(uint _upc, address payable cooperative) harvested(_upc) onlyItemOwner(_upc) onlyFarmer public {\n        // Update the appropriate fields\n        Item storage item = items[_upc];\n        item.itemState = State.GrappesShipped;\n        item.ownerID = cooperative;\n        item.cooperativeID = cooperative;\n\n        // Emit the appropriate event\n        emit GrappesShipped(_upc, cooperative);\n    }\n\n    // Define a function 'processtItem' that allows a cooperative to mark an item 'Processed'\n    function processItem(uint _upc) grappesShipped(_upc) onlyItemOwner(_upc) onlyCooperative public {\n        // Update the appropriate fields\n        Item storage item = items[_upc];\n        item.itemState = State.Processed;\n\n        // Emit the appropriate event\n        emit Processed(_upc);\n    }\n\n    // Define a function 'ageItem' that allows a cooperative to mark an item 'Aged'\n    function ageItem(uint _upc) processed(_upc) onlyItemOwner(_upc) onlyCooperative public {\n        // Update the appropriate fields\n        Item storage item = items[_upc];\n        item.itemState = State.Aged;\n\n        // Emit the appropriate event\n        emit Aged(_upc);\n    }\n\n    function bottleItem(uint _upc) aged(_upc) onlyItemOwner(_upc) onlyCooperative public {\n        Item storage item = items[_upc];\n        item.itemState = State.Bottled;\n        emit Bottled(_upc);\n    }\n\n    //    // Define a function 'boxItem' that allows a cooperative to mark an item 'Boxed'\n    function boxItem(uint _upc) bottled(_upc) onlyItemOwner(_upc) onlyCooperative public {\n        // Update the appropriate fields\n        Item storage item = items[_upc];\n        item.itemState = State.Boxed;\n\n        // Emit the appropriate event\n        emit Boxed(_upc);\n    }\n\n    //    // Define a function 'putForSaleiItem' that allows a cooperative to mark an item 'ForSale'\n    function putForSaleItem(uint _upc, uint price) boxed(_upc) onlyItemOwner(_upc) onlyCooperative public {\n        // Update the appropriate fields\n        Item storage item = items[_upc];\n        item.itemState = State.ForSale;\n        item.productPrice = price;\n\n        // Emit the appropriate event\n        emit ForSale(_upc);\n    }\n\n    function buyItem(uint _upc) forSale(_upc) paidEnough(_upc) onlyDistributor checkValue(_upc) public payable {\n        // Update the appropriate fields\n        Item storage item = items[_upc];\n        item.itemState = State.Sold;\n        item.ownerID = msg.sender;\n        item.distributorID = msg.sender;\n\n        // transfer money to cooperative\n        item.cooperativeID.transfer(item.productPrice);\n\n        // Emit the appropriate event\n        emit Sold(_upc);\n    }\n\n    function shipItem(uint _upc, address payable retailer) sold(_upc) onlyItemOwner(_upc) verifiedRetailer(retailer) onlyDistributor public {\n        // Update the appropriate fields\n        Item storage item = items[_upc];\n        item.itemState = State.Shipped;\n        item.ownerID = retailer;\n        item.retailerID = retailer;\n\n        // Emit the appropriate event\n        emit Shipped(_upc);\n    }\n\n    function receiveItem(uint _upc, uint _price) shipped(_upc) onlyItemOwner(_upc) onlyRetailer public {\n        // Update the appropriate fields\n        Item storage item = items[_upc];\n        item.itemState = State.Received;\n        item.productPrice = _price;\n\n        // Emit the appropriate event\n        emit Received(_upc);\n    }\n\n    function purchaseItem(uint _upc) received(_upc) paidEnough(_upc) onlyConsumer checkValue(_upc) public payable {\n        // Update the appropriate fields\n        Item storage item = items[_upc];\n        item.itemState = State.Purchased;\n        item.ownerID = msg.sender;\n        item.consumerID = msg.sender;\n\n        // transfer money to cooperative\n        item.retailerID.transfer(item.productPrice);\n\n        // Emit the appropriate event\n        emit Purchased(_upc);\n    }\n\n    // Define a function 'fetchItemBuffproductPriceerOne' that fetches the data\n    function fetchItemBufferOne(uint _upc) public view returns\n    (\n        uint itemSKU,\n        uint itemUPC,\n        address ownerID,\n        address originFarmerID,\n        string memory originFarmName,\n        string memory originFarmInformation,\n        string memory originFarmLatitude,\n        string memory originFarmLongitude\n    )\n    {\n        // Assign values to the 8 parameters\n        Item memory item = items[_upc];\n\n        return\n        (\n        item.sku,\n        item.upc,\n        item.ownerID,\n        item.originFarmerID,\n        item.originFarmName,\n        item.originFarmInformation,\n        item.originFarmLatitude,\n        item.originFarmLongitude\n        );\n    }\n\n    // Define a function 'fetchItemBufferTwo' that fetches the data\n    function fetchItemBufferTwo(uint _upc) public view returns\n    (\n        uint itemSKU,\n        uint itemUPC,\n        uint productID,\n        string memory productNotes,\n        uint productPrice,\n        uint itemState,\n        address cooperativeID,\n        address distributorID,\n        address retailerID,\n        address consumerID\n    )\n    {\n        // Assign values to the 9 parameters\n        Item memory item = items[_upc];\n\n        return\n        (\n        item.sku,\n        item.upc,\n        item.productID,\n        item.productNotes,\n        item.productPrice,\n        uint(item.itemState),\n        item.cooperativeID,\n        item.distributorID,\n        item.retailerID,\n        item.consumerID\n        );\n    }\n}\n\n",
  "sourcePath": "/home/nmiguelmoura/Documents/projects/blockchain/wine-supply-chain/contracts/supply/SupplyChain.sol",
  "compiler": {
    "name": "solc",
    "version": "0.5.0+commit.1d4f565a.Emscripten.clang"
  },
  "schemaVersion": "3.0.0",
  "updatedAt": "2019-01-13T12:44:01.192Z",
  "devdoc": {
    "methods": {}
  },
  "userdoc": {
    "methods": {}
  }
}